:020000040800F2
:1000000070740120890200083D2B00080D270008AC
:10001000392B0008011200083534000800000000E8
:10002000000000000000000000000000452B000858
:100030003117000800000000412B0008492B000880
:10004000A3020008A3020008A3020008A3020008FC
:10005000A3020008A3020008A3020008A3020008EC
:10006000A3020008A3020008A3020008A3020008DC
:10007000A3020008A3020008A3020008A3020008CC
:10008000A3020008A3020008A3020008A3020008BC
:1000900005120008A3020008A3020008A30200083A
:1000A000A3020008A3020008A3020008A30200089C
:1000B000A30200086D2B0008A3020008A302000899
:1000C000A3020008A3020008A3020008A30200087C
:1000D000A30200081D340008A30200082934000808
:1000E000A3020008A3020008A3020008A30200085C
:1000F000A3020008A3020008A3020008A30200084C
:10010000A3020008A3020008A3020008A30200083B
:10011000A3020008A3020008A3020008A30200082B
:10012000A302000861150008A3020008A30200084A
:10013000A3020008A3020008A3020008A30200080B
:10014000A3020008A3020008A3020008A3020008FB
:10015000A3020008A3020008A3020008A3020008EB
:10016000A3020008A3020008A3020008A3020008DB
:10017000A3020008A3020008A30200080000000078
:10018000A3020008A302000800F002F800F06CF8D7
:100190000AA090E8000C82448344AAF10107DA45E2
:1001A00001D100F061F8AFF2090EBAE80F0013F0C8
:1001B000010F18BFFB1A43F0010318471C09060082
:1001C0003C090600103A24BF78C878C1FAD8520713
:1001D00024BF30C830C144BF04680C6070470000C1
:1001E0000023002400250026103A28BF78C1FBD840
:1001F000520728BF30C148BF0B607047692900F023
:10020000C580642900F0C280752900F0BF806F2985
:1002100000F05681782900F07D810368DB0928BF52
:1002200041F08001632900F0DF82732900F0E4824D
:10023000E32900F0EF82002070471FB544F0A8FFCB
:100240009DE8030000F036FD00F0ECFB0400002008
:10025000002144F087FF401C606000F021FB1FBDBF
:1002600010B500F086FB10BD00F0B7FB1146FFF79C
:10027000E4FF36F0EDFC00F0C1FC03B4FFF7F0FF43
:1002800003BC00F0FFFA0000094880470948004716
:10029000FEE7FEE7FEE7FEE7FEE7FEE7FEE7FEE736
:1002A000FEE7FEE704480549054A064B7047000093
:1002B000592B000889010008706201207074012028
:1002C000706401207064012070B50446856900687F
:1002D000C10601D5302600E02026C00707D070BD3A
:1002E000D4E9012130469047206A401C20626D1EEF
:1002F000F6D570BD70B5044685690078C00707D192
:1003000070BDD4E9012120209047206A401C206262
:100310006D1EF6D570BD09684A0501D540B270471B
:10032000C905FCD500B2704709684A0501D5C0B2BD
:100330007047C905FCD580B2704770B50C460546BC
:10034000012A05D02878800600D5EA69002302E05A
:10035000012305E05B1C934202D2E05C0028F9D146
:10036000A869E618C01AA861286A184428622846B5
:10037000FFF7AAFF04E0D5E9012114F8010B90472B
:10038000B442F8D32846FFF7B5FF70BD2DE9F04120
:100390000646002410687529314616A510D0FFF7CF
:1003A000BAFF002802DA404213A507E031688A0745
:1003B00001D512A502E0490704D511A5012401E0E9
:1003C000FFF7B2FF00210A2206F1240709E0B0FB83
:1003D000F2FCB0FBF2F302FB1C00303078541846FC
:1003E000491C0028F3D123462A463046BDE8F04197
:1003F00000F097B9000000002D0000002B00000065
:10040000200000002DE9FF5F15468A460446DFF80C
:10041000AC80F8440027D8E900103E46CDE9001032
:1004200010E03AF816106A4602A800F0FFF9411CE5
:1004300007D02178890603D5E269391891420DD891
:100440000744761C2078800602D5E069B84205DDB5
:10045000AE42E6DB3AF816000028E2D1A069C01BE4
:10046000A0612046FFF730FFD8E90010CDE9001069
:10047000002017E03AF818106A4602A800F0D6F9F2
:10048000B0F1FF3F81460BD000250DF1080B05E0D0
:10049000D4E901211BF8050090476D1C4D45F7D3A9
:1004A00008F10100B0428046E4DB206A3844206253
:1004B0002046FFF71FFFBDE8FF9F0000964D040098
:1004C00070B5044621461068FFF72EFF002104F1A5
:1004D000240505E000F007023032C0086A54491CC8
:1004E0000028F7D12068002308A2050708D500F0EE
:1004F0002000084304D0E069012305A2401EE0610A
:100500002046BDE8704000F00CB90000000000007B
:100510003000000070B504460D4621461068FFF714
:1005200003FF2188090502D50F4A7A4402E00E4AEA
:100530007A440E32002104F1240305E000F00F0696
:100540000009965D5E54491C0028F7D120780023ED
:10055000000704D5702D02D009B1022311322046C4
:10056000BDE8704000F0DDB8864C040010B50446CC
:1005700003E00DF0B3FA401C09D014F8010B054953
:100580000028F6D1BDE810400A200DF0A7BA4FF0C0
:10059000FF3010BD9C00002030B505460B462A46B2
:1005A00013F8014B12F8010B08B1A042F8D01CB1AE
:1005B000002802D06D1CF1E7284630BD40EA010357
:1005C00010B59B070FD1042A0DD310C808C9121FFC
:1005D0009C42F8D020BA19BA884201D9012010BD36
:1005E0004FF0FF3010BD1AB1D30703D0521C07E003
:1005F000002010BD10F8013B11F8014B1B1B07D167
:1006000010F8013B11F8014B1B1B01D1921EF1D1D7
:10061000184610BD40EA0103024630B59B0710D1D1
:100620004FF0013400E008C208C91D1B9D4315EAC4
:10063000C41FF8D013F0FF0102F8011B0DD01B0AF4
:10064000F8E711F8013B002B02F8013B05D011F847
:10065000013B002B02F8013BF3D130BD10B5431C28
:1006600002E010F8011B71B18107FAD14FF001329D
:1006700002C88C1A8C4314EAC211F9D0C01A0A06B7
:1006800003D0C01E10BDC01A10BD0A0401D0801EC8
:1006900010BD0902FCD0401E10BD0000000000008B
:1006A00030B44FF0013C50F8042B51F8043BCCFA25
:1006B00052F4D51A20D1FCB950F8042B51F8043B60
:1006C000CCFA52F4D51A17D1B4B950F8042B51F81A
:1006D000043BCCFA52F4D51A0ED16CB950F8042B65
:1006E00051F8043BCCFA52F4D51A05D1002CDAD0DB
:1006F00030BC4FF00000704729BAB1FA81F111F017
:100700001801D1F120008440F2D1CA40CB4012F050
:10071000FF0213F0FF0330BCD01A704770477047D8
:1007200070472DE9F0470D4699469246044600F180
:1007300024080168880604D5E06921F010012160D1
:1007400000E00120A84201DD471B00E00027A1696D
:100750007A1902EB0900081AA0612078C00602D4B9
:100760002046FFF7B1FD002608E0D4E901211AF880
:1007700006009047206A401C761C20624E45F4DB40
:100780002078C0060AD52046FFF79EFD06E0D4E992
:10079000012130209047206A401C2062381EA7F1BA
:1007A0000107F4DC07E0D4E9012118F805009047BF
:1007B000206A401C2062281EA5F10105F3DC2046BA
:1007C000FFF798FD2078000602D50220BDE8F087EB
:1007D0000120FBE710B5436913B1AFF3008001E0DE
:1007E000FFF7ABFD012010BD127800F124010A7063
:1007F00000224A700122EDE711684FF0FF32E9E76D
:1008000010B5436913B1AFF3008001E0FFF7FAFDC3
:10081000012010BD128800F1240182840022C284CC
:100820000122EDE711684FF0FF32E9E72DE9F041D1
:1008300016460C46054600F02BF8036893F80101B4
:10084000012807D0FF2C12D8185D80B101202C7030
:10085000BDE8F081D3F807013246214603F20713C1
:10086000C7182846BC46BDE8F041002360474FF05A
:10087000FF30EDE708B569468DF800000320ABBEF8
:1008800008BD000001491820ABBEFEE726000200AB
:1008900010B500F0C7F8001D10BD00BFC948040026
:1008A00010B54248542100F0BEF94148542100F0EF
:1008B000BAF94048542100F0B6F93F493B483C4A58
:1008C0003F4B08603D490A603A491960531C036573
:1008D000481C1065012008653B48344A39A178441A
:1008E00000F0EEF820B9384878440A3800F094F95E
:1008F00037482F4A35A1784400F0E2F820B934484F
:1009000078440A3800F088F932482A4A2FA17844FE
:1009100000F0D6F820B92F4878440A3800F07CF966
:1009200040232248DC000021224600F0A6F820B136
:1009300025487844543800F06FF91D48224640237A
:10094000002100F09AF820B121487844543800F092
:1009500063F9184822461023002100F08EF8002881
:1009600006D01C487844BDE81040563800F054B911
:1009700010BD104870B5006D20F001040B4800F068
:1009800017F90B4800F014F90A4800F011F909E0D2
:10099000206D20F00105204600F00AF9204600F005
:1009A00045F82C46002CF3D170BD00004800002013
:1009B0009C000020F0000020000000200400002027
:1009C000080000207200000056FD050077000000BE
:1009D00045FD050035FD05007047754600F04AF9F4
:1009E000AE4605006946534620F00700854618B01C
:1009F00020B5FFF757FCBDE820404FF000064FF050
:100A000000074FF000084FF0000BAC46ACE8C009FF
:100A1000ACE8C009ACE8C009ACE8C00921F00701A6
:100A20008D467047004870476401002070B5044649
:100A3000051F00F023F90068002C14BF446870BD46
:100A4000002C18BFAC423CBF20466468F8D3016854
:100A50000A18AA4218BF456003D12A680546114406
:100A6000016028684119A1421CBF6C6070BD6168BB
:100A7000696021680844286070BD70B5C468A50726
:100A800013D0650211D4B2F5807F09D0B2F5007F92
:100A900006D0B2F5806F08D1012300F1240106E0F1
:100AA0005D1E6FF07F46B54201D3012070BD01612C
:100AB000C361416024F470611143C160002070BDC6
:100AC0002DE9F0410C461646070047D0104600F0CD
:100AD0006FF82078611C61280AD0722802D077282C
:100AE0003CD102E00125002405E00225042402E0B7
:100AF000082448F2020511F8010B2B2806D06228C1
:100B000009D011F8010C74280AD00BE045F0030558
:100B100044F00204EFE745F0040544F00104EAE77D
:100B200044F010043846214604F0A6FA411C15D0C2
:100B30000021316171604FF40071F560F161706105
:100B4000200704D530460222002100F011F9306D53
:100B500040F0010030653046BDE8F0810020FBE741
:100B60002DE9F0410D460646104C206DC10704D01A
:100B7000410804D020F00104F7E722460EE054209B
:100B800000F0C7F807000ED0206D47F001010843C0
:100B900054212065384600F046F83A46294630464A
:100BA000BDE8F0418CE70020D6E7000048000020B7
:100BB0002DE9F04704464FF000094FF0FF37C568B4
:100BC000D4E90486A80707D0204600F081F9304612
:100BD00004F040FA002802DA3846BDE8F08728051C
:100BE00002D54046FFF722FF4C21204600F01BF8BB
:100BF000206D20F0010020654846EEE710B5044660
:100C0000AFF300802046BDE81040FFF736BB002858
:100C100001D0FFF737BE704710B500F0B7F9BDE857
:100C20001040FFF7F4BF4FF0000200B513469446A2
:100C30009646203922BFA0E80C50A0E80C50B1F134
:100C40002001BFF4F7AF090728BFA0E80C5048BF48
:100C50000CC05DF804EB890028BF40F8042B08BFE6
:100C6000704748BF20F8022B11F0804F18BF00F8E2
:100C7000012B70470048704744010020004870472E
:100C80004C010020704770477047704738B50446E4
:100C90000A4600206946AFF30080002808BF38BD2F
:100CA00002460099204600F092F9012038BD01204B
:100CB00000F0C8B9F8B5AFF30080054600200C4637
:100CC000102000BF0646A819A0420DD93246694639
:100CD0000020AFF30080070008BF00F0B3F90098D0
:100CE000A04218BF0546C419FFF7C8FF05600746B4
:100CF000F01D20F007004619284600F061F9B442C3
:100D000008BFF8BDA21B31463868BDE8F84000F0C6
:100D10005EB970B50646FFF7B1FF056806F10B0036
:100D200020F00704B4429CBF002070BD2B466A68C7
:100D3000BAB11068A04210D304F1080188423CBF48
:100D40005068586007D35168101941601168091B39
:100D5000016058601460101D70BD13465268002A6F
:100D6000E7D121462846FFF791FF0028DED170BD6C
:100D70002DE9F041044616460D464769007B800781
:100D80002ED0384604F070F950BB3EB3012E02D08D
:100D9000022E25D104E0204600F033F905441DE081
:100DA0003846002000BFE168002841F01001E160F2
:100DB00005DA204600F058F80120BDE8F081C903AB
:100DC0000BD56268E16A914200D81146A2691144CC
:100DD0002269891A814200DD08460544002D01DAA6
:100DE0000220EAE7E16A6068E268814206D2910384
:100DF000E06203D522F4003141F01002A669002719
:100E0000AE4213DCE16A814201D90B4600E00346A1
:100E100003EB060C2369ACEB030CAC4506DD814209
:100E200001D98C4600E084469C4505D1A760276027
:100E300042F02000A5620DE0AD1BE669AE1B8142C9
:100E4000A66000D90846C01A281A206058196060A8
:100E500022F0200003490840E060002084F8487038
:100E6000ABE70000BFCFD7FFC16821F4001141F00C
:100E70008001C16000218160016070472DE9F04769
:100E8000814614460E464FF0FF383248D568576900
:100E9000054209D03846A1694FF0FF30002811DB28
:100EA0002C48C0430540E5602B463246494638464B
:100EB00004F010F9A16920F00042B21A1144002890
:100EC000A16103D02046FFF7CFFF4046BDE8F08781
:100ED00070B504460569C06A6168884200D8084652
:100EE000E16821F42011E160C90312D5A84208D0BD
:100EF0002246411B2846FFF7C1FF10B14FF0FF30DB
:100F000070BD0020E562C4E90150E06820F4803043
:100F1000E060002070BD10B50446C06820F02000DD
:100F2000E060A16AA06988420DD02046FFF7D0FF9B
:100F3000E06820F4405040F01000E060A06AA0613A
:100F40002069E062606044F24001E0688843E0604C
:100F500010BD00001000020070B505460C460A20C6
:100F600000E06D1CFFF786FC35B128780028F8D129
:100F700002E0641CFFF77EFC14B120780028F8D151
:100F8000BDE870400A20FFF775BC000010B50146AF
:100F900002A0FFF7E1FF012010BD000053494752B6
:100FA000545245443A2052656469726563743A202C
:100FB00063616E2774206F70656E3A200000000038
:100FC00000210160C0E901107047102070470346FE
:100FD00040688C46002818BF88423CBF03464068E2
:100FE000F8D318681844884207D00CF1030020F0A9
:100FF0000700001D411A521A0146081D0A60FFF73A
:1010000015BD10B50146C268900703D0900607D5FC
:10101000886A0AE000F01EF801210160881E10BDF8
:101020008B69486818440B69C01A91F848301BB1A5
:1010300091F84910401A10BD1103FCD50028FADDC3
:10104000401E10BD10B500F009F8BDE81040FFF7D4
:10105000DEBD0000004870474401002010B50128A3
:1010600005D0002103A0FFF777FF012010BD09A1E3
:10107000F8E7000053494752544D454D3A204F750B
:1010800074206F662068656170206D656D6F727980
:10109000000000003A2048656170206D656D6F7238
:1010A0007920636F727275707465640053EA020C84
:1010B00000F069802DE9F04B4FF00006002B1FBFB8
:1010C000B3FA83F503FA05F424FA05F65E4012BF7D
:1010D0001643B2FA82F502FA05F4C5F120051EBFE7
:1010E00022FA05FC44EA0C04203556EA044C4FEA87
:1010F000144418BF641C4FF000084FF000099042E0
:1011000071EB030C39D3002919BFB1FA81F701FA49
:1011100007F6B0FA80F700FA07F6C7F120071EBFFE
:1011200020FA07FC46EA0C062037B6FBF4FCA7EBD6
:101130000507103F07F01F0BCBF120062CFA06F62F
:101140000CFA0BFB44BFB3460026202FA4BF5E461B
:101150004FF0000B5BEA060C08BF4FF0010B19EBD8
:101160000B0948EB0608ABFB027C06FB02CC0BFB31
:1011700003CCC01B71EB0C01C1E70B460246414694
:101180004846BDE8F08B13B5084318BF4FF0FF3059
:101190000146AFF30080BDE81C40704702F0FF033A
:1011A00043EA032242EA024200F00AB802F0FF03D7
:1011B00043EA032242EA0242FFF737BD4FF0000242
:1011C0000429C0F0128010F0030C3FF42EADCCF1D6
:1011D000040CBCF1020F18BF00F8012BA8BF20F8C7
:1011E000022BA1EB0C01FFF720BD5FEAC17C24BFFD
:1011F00000F8012B00F8012B48BF00F8012B7047C5
:10120000FEE700002DE9F04F8BB040F29C6BC2F27C
:10121000000BDBF80000466947688268C168D0F8B7
:101220001090D0F81880F30701D1002530E0D307E3
:101230000ED00123950783600AD453075ABF4FF499
:10124000805303EA42254FF40065D30503D40FE031
:101250000025D3050CD54FF480739405836007D423
:1012600053055ABF02F4006345EAC30505F500556E
:10127000D3030DD54FF480339403836008D4530314
:101280004FBF05F500454FF4803303EAD202154401
:10129000320706D511F010021EBF45F4007510226A
:1012A000C260720704D511F008011CBF0821C1609B
:1012B000B10740F1DC80C168890700F0D8809BF855
:1012C00020100139012955D8C168890755D0D0F8B7
:1012D000B021D0F8B011520740F2C462C2F200024D
:1012E0005ABF490D11601168D0F8B021D0F8B4216F
:1012F000D0F8B421D0F8B421D0F8B821A1F29111DE
:101300000392D0F8B821D0F8B831D0F8B8A1D0F80D
:10131000BC4105290194D0F8BCC1D0F8BC4102946D
:10132000D0F8BC410094D0F80CE04EF02004C4602A
:1013300000F27D80100A1A0C029B4FEA1A6E4FEAE7
:101340001C2A4FEA134CDFE801F003202A3F515BCF
:10135000039901F0FE0141EA00204DF6F00180B250
:10136000CFF6FF7101EB500046F2C811C2F2010145
:1013700008825CE04FF4802001E04FF40010DBF8BD
:1013800024100843CBF8240071E0039946F2C812F8
:101390003239C2F2010232389174D07447E046F219
:1013A000C811C2F2010148700198039CC0B240EA22
:1013B0000A20888000980C70000C6CF307008A707B
:1013C00081F803E0C88032E0039901F0FE0141EAB0
:1013D00000204DF6F00180B2CFF6FF7101EB500016
:1013E00046F2C811C2F20101888220E0039946F258
:1013F000C8123239C2F2010232389175D07516E046
:1014000046F2C811C2F201012838487201988A7266
:10141000C8730CF0FE0040EA0A2080B24CF6CD42C0
:10142000039C5043C00C0C7281F80EE0888146F298
:101430003020C2F201000068C8B146F2C011C2F209
:101440000101096849F68054C2F20004CDE90400A4
:101450008DF8181000202168CDE907008DF82800CC
:1014600004A8099120600BF0B9FD0998206070066E
:1014700008D519F0100005D0DBF8000045F48065B0
:1014800010210161B00606D519F0080003D0DBF881
:10149000000008210161F00602D5DBF800000069B8
:1014A000B00306D517F0100003D0DBF800001021C0
:1014B0004160F00306D517F0080003D0DBF8000008
:1014C00008214160300441D578073BD506F480708F
:1014D00008EA102028435FEA8871014648BF41F0BE
:1014E0000201B20558BF01465FEA48700D4648BF89
:1014F00045F00405700558BF0D46300522D518F09B
:1015000070001FD010380009052815D8DFE800F05A
:101510000306090C0F1245F008050DE045F0100513
:101520000AE045F0200507E045F0400504E045F0FD
:10153000800501E045F48075DBF80000816921F049
:1015400070018161DBF800000421416025B1DBF806
:1015500024002843CBF824000BB0BDE8F08F000036
:10156000F0B581B00020009040F20C0040F2A024C1
:10157000C2F20000C2F200040268D4E9166048F228
:10158000B51337680821C1F64E3381403942A2FBBA
:1015900003250CD0226813685B0708D5136823F075
:1015A00004031360B160616D41F0010161650121C7
:1015B0008140394208D022685269120604D5B160D0
:1015C000616D41F00201616504218140394208D01A
:1015D00022681268920704D5B160616D41F0040180
:1015E0006165102101FA00F23A4216D021680B68B9
:1015F0001B0712D5B2600B680A685B0306D4D205DC
:1016000006D40A6822F008020A6001E0110340D4FF
:10161000216C11B120468847E06D202101FA00F2CB
:101620003A4245D021680B68DB0641D5B26094F898
:1016300035300A68052B1CD122F016020A604A696F
:1016400022F080024A61226CA36C1A4303D00A681C
:1016500022F008020A603F2101FA00F0B060012088
:1016600084F83500216D0020002984F8340055D11C
:101670005CE00868520310D4C00512D4086820F05A
:1016800010000860012084F83500002084F8340040
:1016900007E0A16C0029BDD1BFE7000301D4616C54
:1016A00000E0E16B21B140F2A020C2F200008847C7
:1016B000606DD8B3606DC0072ED0052084F835006A
:1016C0002068A90A026822F001020260009A013231
:1016D0008A4200921AD80268D20717D0009A0132C3
:1016E0008A42009212D80268D2070FD0009A0132C3
:1016F0008A4200920AD80268D20707D0009A0132C3
:101700008A42009202D80268D207DFD1012084F811
:101710003500002084F83400E16C39B140F2A0209B
:10172000C2F2000001B0BDE8F040084701B0F0BDD2
:101730007047000010B540F2043EC2F2000ED0F82F
:1017400058C0DEF8003090F8351002293AD101680F
:10175000026C0C6824F016040C604C6924F08004C0
:101760004C610AB9826C1AB10A6822F008020A6058
:101770000A6822F001020A600A68D20725D0DEF862
:101780000020D21A052A17D80A68D2071DD0DEF821
:101790000020D21A052A0FD80A68D20715D0DEF821
:1017A0000020D21A052A07D80A68D2070DD0DEF821
:1017B0000020D21A052ADFD920214165032180F8B3
:1017C00035100BE08021416508E0C16D3F2202FA2F
:1017D00001F1CCF80810012180F83510002180F8C3
:1017E000341010BD2DE9F04F82B000F13E4241F6B9
:1017F000004502F1FF77C4F2020508224FEAB7263E
:10180000A84208BF0722072E38BF4FEAB7224FF081
:10181000010A002400274FF00008009209E000BFF1
:1018200008F101080437B8F1100F04F1020400F0C8
:10183000B5800E680AFA08F916EA090FF0D0D1F857
:1018400004A00AF0030BABF10106012E18D8032205
:10185000866802FA04FECA6826EA0E06A2403243EF
:1018600082604268CAF3001522EA090205FA08F507
:101870004FEA480C6FEA0E062A4342600CE000BFB4
:101880000322A240D643BBF1030FA44604D1A446D1
:101890004FF0030B22E000BFC2688D68324005FAAA
:1018A0000CF52A43BBF1020FC26017D16FF003029F
:1018B00002EA5802024407F01C030F25D2F820E088
:1018C00005FA03FA0D692EEA0A0E05FA03F343EA54
:1018D0000E031362D1F804A00AF0030B02680BFA9E
:1018E0000CF332401A431AF4403F4FF0010A0260F1
:1018F00096D0002243F644030192C4F202031A6810
:1019000043F6004E42F480421A601A68C4F2010E97
:1019100002F480420192019A28F003024FF6084C2B
:101920007244CFF6FF7C52F80C3007F00C060F25FE
:10193000B540AB43009D05FA06F6334342F80C3040
:10194000DEF808204B6842EA090643F60C4CDD023B
:1019500058BF22EA0906CEF80860C4F2010CDCF890
:1019600000209D0242EA090658BF22EA0906CCF887
:101970000060DEF804209D0342EA090658BF22EA0F
:101980000906CEF80460DEF80020DB0342EA09060F
:1019900058BF22EA0906CEF8006041E702B0BDE870
:1019A000F08F000070B582B010B3044690F83D008F
:1019B00008B3022084F83D002068211D01F08AFA56
:1019C000012084F8460084F83E0084F83F0084F843
:1019D000400084F8410084F8420084F8430084F811
:1019E000440084F8450084F83D00002002B070BD3A
:1019F000012002B070BD216840F20042C4F2000232
:101A00000020914284F83C0074D00020C4F2010010
:101A10008142CED14FF0000C43F64000CDF804C017
:101A2000C4F20200416846F2284241F001014160DF
:101A3000406840F2A02100F0010001900198C2F23C
:101A40000001C4F202024FF040604023C1E90020CF
:101A500001F108004FF4806E4FF400654FF400561A
:101A600080E8085001F1140040F2043380E860106F
:101A7000C1E908CCC2F200030226186881F835607B
:101A800081F834C0166826F0010616601668F6075D
:101A900050D1106848F23F03CFF21003184040F0D5
:101AA000406040F43150106050696FF00F034AF607
:101AB000AB2653FA82F3CAF6AA26A3FB066520F0EA
:101AC0000700506128092FA6305C40F2FF36B24370
:101AD0005F2B4FF03F0388BF0432C1E9162003FAA1
:101AE00000F090600120C1F854C081F835006162B7
:101AF0008C635EE743F640010090C4F202010A687D
:101B000042F002020A60096801F0020100910099A6
:101B10004EF60C51CEF2000109684EF21D41CEF294
:101B2000000108704EF20010CEF200004FF000519C
:101B300001603EE70A681E68361A052E18D8166836
:101B4000F607A6D01E68361A052E11D81668F607B5
:101B50009FD01E68361A052E0AD81668F60798D048
:101B60001E68361A052E03D81668F607E3D190E7EB
:101B700020204865032081F83500EFF3108072B60D
:101B8000FEE700BF000610160006101680B590F89C
:101B90003C20012A4FF0020200F0BF8080F83D2077
:101BA000D0F800C04FF67772DCF8083023EA020262
:101BB000CCF808200B684F2B28DC1F2B43DD202B93
:101BC00044D0302B42D0402B40F0A980D1F804E023
:101BD000C968DCF82030DCF8202022F00102CCF8C3
:101BE0002020DCF8182022F0F00242EA011123F054
:101BF0000A0242EA0E02CCF81810CCF82020DCF8D9
:101C0000081041F0470121F030017DE06F2B25DD08
:101C1000B3F5005F46D0B3F5805F77D0702B7ED1EF
:101C2000D1E901E3C968DCF8082043EA0E0322F495
:101C30007F4243EA01211143CCF80810DCF8081078
:101C400041F0770160E00BB1102B68D1DCF808108F
:101C500021F07001194341F0070155E0502B34D0B9
:101C6000602B5CD1D1F804E0C968DCF8203023F0A7
:101C70001003CCF82030DCF81830DCF8202023F4F6
:101C8000704322F0A00243EA013142EA0E12CCF87E
:101C90001810CCF82020DCF8081041F0670121F082
:101CA000100131E0D1E901E3C968DCF8082043EA1A
:101CB0000E0322F47F4243EA01211143CCF80810BD
:101CC000DCF8081041F480411EE0D1F804E0C96856
:101CD000DCF82030DCF8202022F00102CCF82020B3
:101CE000DCF8182022F0F00242EA011123F00A0287
:101CF00042EA0E02CCF81810CCF82020DCF80810CC
:101D000041F0570121F02001CCF8081000220121F8
:101D100080F83D10002180F83C10104680BD012263
:101D2000F5E7000070B582B0044600680268064618
:101D300056F80C3F456902F02F01202903F0200CD2
:101D400008D1BCF1000F05D0204602B0BDE87040BC
:101D500001F058B95FEA027E1EBF05F0010503F4E9
:101D6000907111EB050140F0CB80216B012905D169
:101D700012F0100118BF13F0100132D1110622D554
:101D800013F080011FD094F83D10212927D1A168BC
:101D9000B1F5805F03D12169002900F06182216AD9
:101DA0004A1C226209784160E08C01380104E08419
:101DB00015D1306820F080003060306840F040007D
:101DC000306002B070BD500609D513F0400006D057
:101DD000306820F040003060202084F83D0002B0E0
:101DE00070BD002101910168019141680191019943
:101DF0004069400600F18E80A08DE28DE18D0029C2
:101E000018BF9042EBD056E8000F216820F4907084
:101E100041E80302CAB3206850E8030F216820F4A8
:101E2000907041E8030282B3206850E8030F2168F4
:101E300020F4907041E803023AB3206850E8030FA1
:101E4000216820F4907041E80302F2B1206850E864
:101E5000030FDAE7206850E8050F216820F0010041
:101E600041E80502DAB1206850E8050F216820F04A
:101E7000010041E8050292B1206850E8050F216891
:101E800020F0010041E805024AB1206850E8050F42
:101E9000216820F0010041E80502002ADAD1202063
:101EA00084F83E0000202063206850E8030F21687A
:101EB00020F0100041E80302002A3FF490AF2068B0
:101EC00050E8030F216820F0100041E80302002AC7
:101ED0003FF485AF206850E8030F216820F0100020
:101EE00041E80302002A3FF47AAF206850E8030F6C
:101EF000216820F0100041E80302002AD4D16EE7E7
:101F0000D10718BF13F4807140F0B680510700F17B
:101F1000B980BCE0A06B01684A6893B2002B3FF423
:101F20005EAFA18D8B42BFF45AAFE285C069B0F5B8
:101F3000807F00F09E8056E8000F216820F48070BA
:101F400041E80302F2B1206850E8030F216820F451
:101F5000807041E80302AAB1206850E8030F2168AD
:101F600020F4807041E8030262B1206850E8030F5A
:101F7000216820F4807041E803021AB1206850E81B
:101F8000030FDAE7206850E8050F216820F0010010
:101F900041E80502DAB1206850E8050F216820F019
:101FA000010041E8050292B1206850E8050F216860
:101FB00020F0010041E805024AB1206850E8050F11
:101FC000216820F0010041E80502002ADAD12068EA
:101FD00050E8050F216820F0400041E80502DAB121
:101FE000206850E8050F216820F0400041E8050214
:101FF00092B1206850E8050F216820F0400041E8C8
:1020000005024AB1206850E8050F216820F0400021
:1020100041E80502002ADAD1202084F83E000020A1
:102020002063206850E8030F216820F0100041E889
:102030000302DAB1206850E8030F216820F0100095
:1020400041E8030292B1206850E8030F216820F0B4
:10205000100041E803024AB1206850E8030F2168EC
:1020600020F0100041E80302002ADAD1A06BFFF74C
:1020700061FBE08D02B070BD216C41F00101216473
:10208000510704D51DB1216C41F002012164910773
:1020900004D51DB1216C41F004012164BEF1000F93
:1020A00006D55CEA050103D0216C41F008012164EA
:1020B000216C00293FF493AE12F0200118BFBCF14F
:1020C000000F03D0204600F09DFF20684169226C7C
:1020D00001F0400102F00802891800F0A68000BF5C
:1020E00050E8030F216820F4907041E80302C2B366
:1020F000206850E8030F216820F4907041E8030243
:102100007AB3206850E8030F216820F4907041E80A
:10211000030232B3206850E8030F216820F4907066
:1021200041E80302EAB12068DAE700BF206850E81E
:10213000050F216820F0010041E80502DAB12068AE
:1021400050E8050F216820F0010041E8050292B136
:10215000206850E8050F216820F0010041E80502E1
:102160004AB1206850E8050F216820F0010041E8DD
:102170000502002ADAD1206B012824D1206850E81A
:10218000030F216820F0100041E80302DAB1206853
:1021900050E8030F216820F0100041E8030292B1DB
:1021A000206850E8030F216820F0100041E8030286
:1021B0004AB1206850E8030F216820F0100041E880
:1021C0000302002ADAD1202084F83E000020206398
:1021D000206850F8141F49067FF501AE50E8000F43
:1021E000216820F0400041E8050212B3206850E861
:1021F000050F216820F0400041E80502CAB12068BF
:1022000050E8050F216820F0400041E8050282B146
:10221000206850E8050F216820F0400041E80502E1
:102220003AB1206850E8050FDAE70020206402B0D8
:1022300070BDA06B00283FF4D2AD42F6F971C0F634
:102240000001016590F83510022911D1052180F8AF
:1022500035100068016821F00101016002B070BD15
:10226000216A31F8022B6FF35F22426021629BE505
:102270008021416502B0BDE8704000F0BDBE0000A5
:10228000002804BF012070472DE9F04186B00446C4
:1022900090F83D0043F6300541F20006C4F2020515
:1022A0000028C4F2010665D1216844F60002C4F298
:1022B00000020020914284F83C00CDE90400CDE901
:1022C000020001901DD0B14254D1002000906969F4
:1022D000252741F010016961696901F01001009141
:1022E00000990090286840F001002860286800F0FC
:1022F0000100009000984FF4C060019006F5704016
:1023000019E000902969272741F480212961296972
:1023100001F48021009100990090286840F00200AB
:102320002860286800F00200009000984FF4406098
:10233000019006F5744002210291032104910721C6
:102340004FF00008059101A9CDF80C80FFF74AFA7B
:102350004EF60C50CEF2000000684EF20410CEF2A1
:102360000000391881F8FC8207F00701012202FA07
:1023700001F10160242084F83D002768D4E90212AD
:10238000E069FB6823F40053FB603B6923F440538E
:102390001A433A61D4E904231143FA68194349F214
:1023A0000C6301439A431143F9607969A26921F4EE
:1023B00040711143796106F580618F4240F20C0152
:1023C0004FF00A02C2F2000108BF0D22096855F859
:1023D000283CB74208BF0D2223FA02F202F007029E
:1023E0002CA39A5C6368D1401922B0F5004FA1FB81
:1023F00002011CD15A00DB0FFEF758FE48F21F51B4
:10240000C5F2EB11A0FB01235A096FF0630302FB35
:102410000300322303EBC000A0FB01014FF4F8706E
:1024200000EA111000EB0210C1F342111AE09A0009
:102430009B0FFEF73BFE48F21F51C5F2EB11A0FBCC
:1024400001235A096FF0630302FB0300322303EBFD
:102450000010A0FB0101F02000EA511000EB021077
:10246000C1F343110844B8603869202120F490403A
:102470003861786920F02A007861F86840F40050EB
:10248000F8600020206484F83D1084F83E1006B007
:10249000BDE8F0810000000001020304B0B590F82F
:1024A0003D30202B40F08C80002900F0898090F88E
:1024B0003C30012B08BFB0BD0024212340F2043C76
:1024C000046480F83D30C2F2000CDCF800308284F5
:1024D000C2848268B2F5805F07D10269002A1CBFFE
:1024E0000A4621468E46114601E04FF0000E80F864
:1024F0003C40C48C0268C4B3002400BF15682D069C
:1025000022D4DCF80050ED1AB5F5803F5BD2156897
:102510002D0619D4DCF80050ED1AB4EB154F52D14A
:1025200015682D0610D4DCF80050ED1AB4EB154FE9
:1025300049D115682D0607D4DCF80050ED1AB4EB2C
:10254000154FDBD03FE000BF19B111F8015B5560BA
:1025500005E03EF8021B6FF35F2151600021C58C3E
:10256000013DC584C58C002DC8D11168490624D40D
:102570000021DCF80050ED1AB5F5803F77D21568E0
:102580006D061AD4DCF80050ED1AB1EB154F6ED180
:1025900015686D0611D4DCF80050ED1AB1EB154F3B
:1025A00065D115686D0608D4DCF80050ED1AB1EB62
:1025B000154F5CD115686D06DBD5202180F83D10E4
:1025C000B0BD00BF026852E8031F026821F4D07159
:1025D00042E80313E3B1016851E8031F026821F4E4
:1025E000D07142E803139BB1016851E8031F0268F0
:1025F00021F4D07142E8031353B1016851E8031F7D
:10260000026821F4D07142E80313002BDAD100BF35
:10261000016851E8051F026821F0010142E8051335
:10262000DBB1016851E8051F026821F0010142E8B1
:10263000051393B1016851E8051F026821F00101FB
:1026400042E805134BB1016851E8051F026821F00B
:10265000010142E80513002BDAD1202180F83D105A
:1026600080F83E10002180F83C10B0BD026852E8AE
:10267000031F026821F4D07142E80313D3B3016849
:1026800051E8031F026821F4D07142E803138BB3B1
:10269000016851E8031F026821F4D07142E8031376
:1026A00043B3016851E8031F026821F4D07142E886
:1026B0000313002BDAD11DE0016851E8051F026801
:1026C00021F0010142E80513002BC6D0016851E852
:1026D000051F026821F0010142E80513002BBCD060
:1026E000016851E8051F026821F0010142E8051365
:1026F000002BB2D0016851E8051F026821F00101EA
:1027000042E80513002BD7D1A7E70000FEE7000041
:102710000020C6F210402A2120F8021C00212B22A2
:102720000180018020F8022C2C220180018020F8F9
:10273000022C4FF4163200BF803A018001800180E4
:102740000180018001800180018001800180018081
:102750000180018001800180018001800180018071
:102760000180018001800180018001800180018061
:102770000180018001800180018001800180018051
:102780000180018001800180018001800180018041
:102790000180018001800180018001800180018031
:1027A0000180018001800180018001800180018021
:1027B0000180018001800180018001800180018011
:1027C0000180018001800180018001800180018001
:1027D00001800180018001800180018001800180F1
:1027E00001800180018001800180018001800180E1
:1027F00001800180018001800180018001800180D1
:1028000001800180018001800180018001800180C0
:1028100001800180018001800180018001800180B0
:1028200001800180018001800180018001800180A0
:10283000018001800180018001807FF47DAF7047BD
:102840002DE9F04740F20431C2F20001086800BFF0
:102850000A68121A642A0BD80A68121A642A07D85E
:102860000A68121A642A03D80A68121A652AEFD372
:102870000020C6F21040F022C32320F8022C03806F
:10288000962320F8022C0380362320F8023C4FF0D8
:10289000380C4FF03A084FF00509B423A0F800C0F7
:1028A00020F8028CA0F8009020F8023C4FF0010EB6
:1028B000B123A0F800E020F8023C8023102403801C
:1028C0000480C02420F8024C038064230380C123C9
:1028D00020F8023C4FF0130AC223A0F800A020F811
:1028E000023CA7230380C52320F8023C0927E823E4
:1028F000078020F8023C402303808A2303800023C2
:10290000292503800380058019250580A5250580DC
:102910003325E026058020F8026C06260B24028071
:10292000068004800724048006802E244726A0F811
:1029300000900480058006801726A0F8008006809D
:1029400016260680312604800680E12620F8026CD7
:102950000D26028007800680082607800680232631
:102960000680048046242C2705800480A0F800C03F
:10297000A0F800A0A0F800A00780322707803C271D
:1029800020F8022C078020F8022C692202802122E4
:1029900020F8022C2B2220F8022C3F2203800380F7
:1029A000A0F800E002802A2220F8022CDF22038017
:1029B0000380A0F800E00280112220F8022C0A68AF
:1029C0000B689B1A782B0BD80B689B1A782B07D8AF
:1029D0000B689B1A782B03D80B689B1A792BEFD3C3
:1029E000292220F8022C0A680B689B1A322B0BD87C
:1029F0000B689B1A322B07D80B689B1A322B03D813
:102A00000B689B1A332BEFD32C222A2120F8022C9F
:102A100020F8021C00212B230180018020F8023CB9
:102A20000180018020F8022C4FF41632803A018098
:102A3000018001800180018001800180018001808E
:102A4000018001800180018001800180018001807E
:102A5000018001800180018001800180018001806E
:102A6000018001800180018001800180018001805E
:102A7000018001800180018001800180018001804E
:102A8000018001800180018001800180018001803E
:102A9000018001800180018001800180018001802E
:102AA000018001800180018001800180018001801E
:102AB000018001800180018001800180018001800E
:102AC00001800180018001800180018001800180FE
:102AD00001800180018001800180018001800180EE
:102AE00001800180018001800180018001800180DE
:102AF00001800180018001800180018001800180CE
:102B000001800180018001800180018001800180BD
:102B100001800180018001800180018001800180AD
:102B200001800180018001800180018001807FF4AB
:102B30007DAFBDE8F0870000FEE70000FEE7000083
:102B4000704700007047000040F20430C2F20000FD
:102B500001680131016070474EF68850CEF20000E6
:102B6000016841F4700101607047000010B540F247
:102B7000582EC2F2000EDEF800000269920744BF30
:102B8000C2685FEA827239D40169490744BFC168EB
:102B90005FEA417155D40169090744BFC1685FEA22
:102BA000017172D40169C90644BFC1685FEAC1619D
:102BB00000F18E800169C9071CBFC1685FEAC1715D
:102BC00040F0AA800169090641BFC1685FEA01615E
:102BD0006FF0800101610169490641BFC1685FEA88
:102BE00041616FF0400101610169890641BFC1681F
:102BF0005FEA81616FF02001016110BD6FF0020298
:102C000002618269920740F0C78040F2CC6CC2F248
:102C1000000CDCF800300021DCF824205963D9686E
:102C200021F40071D96092F83510022940F08580B6
:102C3000052182F8351011680A6822F001020A6045
:102C40007DE06FF004010161816911F4407F40F083
:102C5000D68040F2CC6CC2F2000CDCF800300021CF
:102C6000DCF824205963D96821F40071D96092F806
:102C70003510022940F09480052182F83510116842
:102C80000A6822F001020A608CE06FF0080101611D
:102C9000C169890740F0E68040F2CC6CC2F2000CBA
:102CA000DCF800300021DCF824205963D96821F4D5
:102CB0000071D96092F83510022940F0A4800521F6
:102CC00082F8351011680A6822F001020A609CE05F
:102CD0006FF010010161C16911F4407F40F0F5808F
:102CE00040F2CC6CC2F2000CDCF800300021DCF8C1
:102CF00024205963D96821F40071D96092F8351005
:102D0000022940F0B380052182F8351011680A6865
:102D100022F001020A60ABE06FF00101016149F6A7
:102D20007071C2F2000100220A7049F67471C2F299
:102D300000010A6801320A6044E780215165196A7E
:102D400040F2004421F001011962196A43F48062E3
:102D5000C4F20104A24219620DD1196A41F21112A2
:102D6000114208D1196A40F24442114203D1596C10
:102D700021F400415964196A41F21112114208D13B
:102D8000196A40F24442114203D1196821F001014D
:102D9000196001218CF83E1000218EF81C10F3E61A
:102DA00080215165196A40F2004421F00101196245
:102DB000196A43F48062C4F20104A24219620DD17F
:102DC000196A41F21112114208D1196A40F24442C3
:102DD000114203D1596C21F400415964196A41F23E
:102DE0001112114208D1196A40F24442114203D132
:102DF000196821F00101196001218CF83E100021B1
:102E00008EF81C10C7E680215165196A40F2004413
:102E100021F001011962196A43F48062C4F20104CD
:102E2000A24219620DD1196A41F21112114208D160
:102E3000196A40F24442114203D1596C21F4004115
:102E40005964196A41F21112114208D1196A40F20B
:102E50004442114203D1196821F001011960012196
:102E60008CF83E1000218EF81C109BE680215165E5
:102E7000196A40F2004421F001011962196A43F411
:102E80008062C4F20104A24219620DD1196A41F2B2
:102E90001112114208D1196A40F24442114203D181
:102EA000596C21F400415964196A41F2111211421E
:102EB00008D1196A40F24442114203D1196821F045
:102EC0000101196001218CF83E1000218EF81C10C0
:102ED00070E6000010B540F6FF3E0368C4F2000E35
:102EE00040F2004C7045C4F2010C0FDCB0F1804F91
:102EF00019D040F20042C4F20002904213D040F6D2
:102F00000002C4F2000290420DD010E040F60042F0
:102F1000C4F20002904206D0604504D00022C4F200
:102F20000102904203D14A6823F07003134341F633
:102F3000FF72C4F2000290420DDC70451FDCB0F15C
:102F4000804F41D040F20042C4F2000290423BD098
:102F500040F6000221E043F6FF72C4F20102904203
:102F600020DC42F20002C4F2000290422CD0002287
:102F7000C4F20102904227D0604525D028E040F6F7
:102F80000042C4F2000290421ED041F60002C4F298
:102F90000002904218D041F60042C4F20002904272
:102FA00012D015E044F20002C4F2010290420BD0AC
:102FB00044F60002C4F20102904205D044F20042FD
:102FC000C4F20102904203D1CA6823F44073134350
:102FD00023F080024B69D1F800E08C681A4302604C
:102FE000C46240F48062C0F828E0624504BF096909
:102FF00001630121416110BD806B0021C185C18445
:10300000704700002DE9F04182B0044690F83E0080
:10301000222820D1A268B2F5805F08D1206900285B
:1030200064D004F128000168226852680AE0204652
:1030300050F8281F12B92269002AF5D02268526878
:1030400002F07F020A70016801310160E08D0138F1
:103050000104E08502D002B0BDE8F0812068C168BB
:1030600021F02001C160C16821F48071C160416913
:1030700021F001014161202184F83E10216B0129DA
:103080003DD10021216300BF50E8030F216820F0EB
:10309000100041E803022068DAB150E8030F21680C
:1030A00020F0100041E80302206892B150E8030FBD
:1030B000216820F0100041E8030220684AB150E87E
:1030C000030F216820F0100041E803022068002A65
:1030D000DAD10168C906BED50021019101680191CC
:1030E00040680190019802B0BDE8F0812068A16AB3
:1030F00040686FF35F2021F8020BA162A6E744F657
:103100000006C4F2000606F54841884240F093806C
:1031100040F20837C2F200073878FF2815D10020A6
:10312000387040F29C40C2F200004FF48071FDF70D
:103130007AFD40F20C4040F24F61C2F20000C0F64E
:1031400006010A22FFF7AAF948E040F25041C2F214
:1031500000010B7840F29C42411CC2F200020A2B93
:10316000397013543AD1104410F8010C0D2835D1A0
:1031700040F25445CAB2C2F2000540F29C41C2F28C
:1031800000012846FFF78AF995F83D0095F83E10B2
:103190000843C0B2212817D195F83D0095F83E109C
:1031A0000843C0B221280FD195F83D0095F83E1094
:1031B0000843C0B2212807D195F83D0095F83E108C
:1031C0000843C0B22128DFD00020387040F29C4074
:1031D000C2F200004FF48071FDF725FD40F20C4073
:1031E000C2F2000090F83C1090F83E20202A21D135
:1031F00001291FD040F250410022C2F200010263B7
:10320000816201218185C1852221026480F83E10FE
:10321000016980F83C200029016803D0C86840F4A7
:103220008070C860486940F001004861C86840F09B
:103230002000C8602068B0427FF40DAF40F209362C
:10324000C2F20006307840F25445FF28C2F2000571
:1032500015D10020307040F29C50C2F200004FF4B3
:103260008071FDF7E0FC40F2544040F24F61C2F241
:103270000000C0F606010A22FFF710F99DE040F2B7
:103280009847C2F200073B7840F29C52411CC2F2C0
:1032900000020A2B3170135440F08F80104410F854
:1032A000010C0D2840F08980022900F0868040F250
:1032B0009C54C2F2000457A120460322FDF77EF978
:1032C00020B12088202801D024786CBB40F29C508B
:1032D000C2F200004FF48071FDF7A5FC95F83C00A8
:1032E00095F83E10002420291ED101281CD0002171
:1032F00001202963AF62A885E8852220296485F82A
:103300003E00286985F83C100028286803D0C16871
:1033100041F48071C1604169002441F001014161C3
:10332000C16841F02001C16040F29C58C2F200081F
:1033300039A14046FDF730F960B340F29C50C2F22B
:1033400000004FF48071FDF76EFC95F83C0095F895
:103350003E1020292FD101282DD0002101202963E2
:10336000AF62A885E8852220296485F83E00286997
:1033700085F83C100028286803D0C16841F48071AA
:10338000C160416941F001014161C16841F0200122
:10339000C16010E00D2C0ED198F801000A280AD166
:1033A00042F62D50A8F8000040F20A30C2F20000A8
:1033B0004146FDF72FF90020307095F83C0095F854
:1033C0003E1020297FF447AE01283FF444AE40F27E
:1033D00098400021C2F200002963A8620120A8855C
:1033E000E8852220296485F83E00286985F83C108C
:1033F0000028286803D0C16841F48071C160416928
:1034000041F001014161C16841F02001C16002B099
:10341000BDE8F0810D0A00004F4B000040F20C4067
:10342000C2F20000FEF77EBC40F25440C2F200003F
:10343000FEF778BCFEE7000070B50346B1F9000066
:10344000B2F90040B1F902C0B2F90250B1F904E09A
:10345000B2F90460A042B1F90610B2F90620C8BF63
:103460000446AC451C80C8BF6546B6455D80B8BF04
:10347000764691429E80B8BF0A460020B4424FF083
:103480000001D8BF01219542D8BF01200840DA8051
:1034900070BD00002DE9F04381B00C46B0F900701A
:1034A000B1F900108F423DDBB0F90260B4F90210AF
:1034B0008E4237DBB0F90490B4F90410894531DC51
:1034C000B0F90680B4F9060080452BDC15466AB3D6
:1034D000694620462A46ADF80070ADF8026000F05B
:1034E00029F8F8B1694620462A46ADF80090ADF8B3
:1034F000026000F01FF8A8B1694620462A46ADF8E0
:103500000070ADF8028000F015F858B16946204609
:103510002A46ADF80090ADF8028000F00BF801B03B
:10352000BDE8F083002001B0BDE8F083012001B0C8
:10353000BDE8F0832DE9F041B1F90030B0F9004069
:10354000A3420DDBB0F904E0734509DCB1F902C018
:10355000B0F902108C4503DBB0F90650AC4502DD32
:103560000020BDE8F081012A52DBAEEB04000130FF
:1035700086B200EBD63006B2681A013087B200EB93
:10358000D73007B24FEA66087810B8EB670FB8BFBC
:1035900070109042A8BF1046021917B24218BB42E1
:1035A00016B2D8BFB44515DD2A1ABB4212B22ADCC6
:1035B000944528DB391809B2091B01EBD1714F1072
:1035C00004EB610602EB6101401A9B1B604407FBA0
:1035D00007F10EE0384400B2001B00EBD07042103F
:1035E00004EB600701EB6000DB1BACEB000002FBAF
:1035F00002F110FB00F013FB030200208A4298BF87
:103600000120BDE8F081AEEB000424B2A34202DA4F
:103610000120BDE8F081944516DAB445F8DC201AA3
:1036200002B2AEEB020202EBD27201EB620100EBDE
:103630006200ACEB01015710181A11FB01F107FBF6
:1036400007F210FB001113E0211A0CB2AEEB0407D5
:1036500007EBD77702EB6702801A01EB6701604442
:103660007E10591A10FB00F006FB06F211FB010157
:103670000020914298BF0120BDE8F0812DE9F04F74
:103680008FB049F67471C2F200010F6849F6707884
:10369000C2F20008012100BF88F8001098F800204D
:1036A0007AB988F8001098F8002052B988F800100C
:1036B00098F800202AB988F8001098F80020002A0D
:1036C000EAD000210C9149F66C7149F69055C2F28E
:1036D0000001C2F20005002818BF00F10C012E788D
:1036E000096849F6BC50C2F20000002E016040F0AB
:1036F0009F80086901222A7068B1426804465AB165
:103700005068144640B1426804462AB150681446D5
:103710000028F1D100E00024608C82070ED500BFA4
:1037200020F00200608420460CF058FC608C810779
:10373000F6D449F6BC50C2F2000001684869002284
:10374000B0FA80F35B0933432A7021D101222A7039
:10375000426804464AB15068144630B14268044693
:103760001AB1506814460028F2D1608C82070DD53A
:1037700020F00200608420460CF030FC608C810751
:10378000F6D449F6BC50C2F200000168002028704F
:10379000002E4DD1C86901222A7000BF68B142686D
:1037A00004465AB15068144640B1426804462AB1F2
:1037B000506814460028F1D100E00024608C820794
:1037C0000ED500BF20F00200608420460CF006FCFD
:1037D000608C8107F6D449F6BC50C2F20000016843
:1037E000086A01222A7000BF68B1426804465AB1D3
:1037F0005068144640B1426804462AB150681446E5
:103800000028F1D100E00024608C82070ED500BFB3
:1038100020F00200608420460CF0E0FB608C810701
:10382000F6D449F6BC50C2F20000016800202870AE
:103830000869002800F0EA80B1F8500149F6C0524A
:103840000028C2F2000200F0E7800022034603973E
:1038500005E000BF034601329A4280F0AD808F1828
:1038600097F83071002FF6D1002B00F0A38001EB08
:10387000C20303F1300B03F1320903F1340A36338A
:103880000026099303E000BF01368642E2D28B197D
:1038900093F83031002BF7D1B242F5D001EBC203DF
:1038A00001EBC607B3F93050B7F93440A542EBDC61
:1038B000B3F93450B7F93040A542E5DBB3F93250E3
:1038C000B7F93640A542DFDCB3F93630B7F93270CC
:1038D000BB42D9DB01EBC6070597B7F930C0B7F992
:1038E00032E0B7F93470CDF82890A7EB0C05BBF99E
:1038F000003007950A9DCDF820B063450493B5F9D3
:103900000090B8BF9C46CDF82CA00B9CF145B4F9B3
:1039100000A0CDF818E0B8BFCE46BA45C8BF57469C
:10392000059B099CB3F93650049BB4F90040AAEBFF
:10393000030A069B0FFA87F80FFA8CFBA8EB0B081B
:10394000A5EB030BAC42C8BF2546A4EB09040AF162
:103950000109013404FB09F9079C08F1010804F18D
:10396000010A0BF1010404FB0A9A0FFA85F90FFA18
:103970008EF4A9EB0404013404FB08F4DDF828906C
:1039800049F670785445DDF82CA0DDF820B0C2F27D
:103990000008BFF479AF0998012305808819ABF8B6
:1039A00000C0A9F800E0AAF8007080F83031B1F842
:1039B000500169E700234EE7B1F850A149F6C05223
:1039C0000020BAF1000FC2F20002106000F056822F
:1039D000BAF1010F23DB01EB0A0090F82F210AB3A3
:1039E000BAF1020F1BD390F82E21F2B1BAF1030FF6
:1039F00015D390F82D21DAB1BAF1040F0FD390F856
:103A00002C01AAF1040A0028E2D113E00020A1F859
:103A100050010FB0BDE8F08F002010602EE24FF093
:103A2000000A07E0AAF1010A04E0AAF1020A01E093
:103A3000AAF1030A0868426B32B1904749F6BC50BC
:103A4000C2F2000001680868C068826922F00102C1
:103A500082610868C068826922F002028261B1F85E
:103A6000502191F82800002A40F0040281F8282013
:103A700000F089814FF002090DAE0025CDF824A099
:103A80002AE0816962F341018161CBF80850584610
:103A900036F010FD49F6BC50C2F200000A9D0168E4
:103AA00001EBC500B0F93020B0F93470B0F9323014
:103AB000B0F93600BA1A49F6C057C2F20007C01A68
:103AC0003B680132013000FB02303860B1F8500130
:103AD0000135854280F03C81481990F8300100287A
:103AE000F4D1554505D10868C068826942F00102E9
:103AF0008261086801EBC504C068826922F0020295
:103B0000826108680A95C268D0F83CB0926804F1F6
:103B10003005CBF800200269910749EA121101F043
:103B200003011AD0032949F6BC51C2F2000108BFB3
:103B30000230096800880A4629B949F66C72C2F257
:103B400000021268CAB31268136949EA131303F03A
:103B50000303032B2FD1128830E0032918BF023052
:103B600034F832CFB0F900002746B4F90420298890
:103B700037F8023F82420B9706DA49F6BC50C2F290
:103B800000000068174632E049F6BC50C2F200005F
:103B90000068074628B949F66C77C2F200073F680B
:103BA0001FB33F683E6949EA161606F00306032E66
:103BB00019D13F881AE0528800E000220138013A0A
:103BC00000230D93ADF83800ADF83A20CBF804602F
:103BD0000968D1E90301826989077FF552AF42F094
:103BE0000201354650E77F8800E00027013F00686A
:103BF000591AC6680131F668A2EB0C0209B2531CCF
:103C0000B6FBF1F9826919B28945C8BF8946AAB3E2
:103C100000210D91ADF83810A9F101060DA9ADF8FC
:103C20003A609047BDF83610BDF93A00411A0131AB
:103C300009B2894519DA00BF30B201281CDB49F608
:103C4000BC50C2F200000068013E00680DA9826904
:103C5000ADF83A609047BDF83610BDF93A00411A08
:103C6000013109B28945E7DB03E00FFA89F1012947
:103C700002DB00F1010901E04FF00009B4F9000096
:103C80003EB209EB00014A1EB24280B20BDD0021B8
:103C90003AE000BF584636F00DFC09FA84F14A1E9E
:103CA000B24220462BDC2B880C46ADF834300B9BFF
:103CB0000FFA82FA1B88ADF8360049F6BC50C2F202
:103CC0000000ADF838300DAB0068ADF83A20CBF805
:103CD0000430CBF8083000685645C068BAB2816835
:103CE000CBF80010BCBFADF83A70BA461FFA8AF1A3
:103CF0008A42CFD1816941F002018161CAE70FFA9E
:103D00008AF1DDF824A020464FF00209B1420DAE41
:103D10003FF4C0AE2988ADF834100B990988ADF88E
:103D2000360049F6BC50C2F200000068ADF8381009
:103D3000ADF83A70CBF80460CBF808600068C06852
:103D40008168CBF80010816941F0020181619EE633
:103D500091F82820002802F0FB0281F8282000F0CA
:103D60008D8001F1300414F0030011D0C61E18BF7D
:103D700080F00306751C20462946FDF71FFA2C44E7
:103D800086F0FF0506E000F0FB0081F8280075E0F2
:103D90004FF48075A5F1210020F01F0707F12006E0
:103DA00020463146FCF73FFFE81BA0F12005052D1A
:103DB00034440AD3681F20F00306311D2046FCF767
:103DC00032FF3019041DA81B051F1DB120462946CE
:103DD000FDF7F4F949F6BC50C2F20000066806F59A
:103DE000987414F003000ED0C71E18BF80F00307AC
:103DF0007D1C20462946FDF7E1F9701900F59874FD
:103E000087F01F0500E02025681F20F00307391DFB
:103E10002046FCF708FFE81B011F03D038190430C7
:103E2000FDF7CCF90020A6F8500149F67470C2F2F3
:103E300000000068012100BF88F8001098F80020F9
:103E40007AB988F8001098F8002052B988F8001064
:103E500098F800202AB988F8001098F80020002A65
:103E6000EAD0039949F6C052401A0C903068C2F269
:103E70000002436A13B10C991268984746F2FC0A93
:103E8000C2F2010ADAF8004046F2081740F22009AF
:103E900046F2001B0025C2F20107C2F20009C2F27D
:103EA000010B00260CE000BF07EBC600817947F844
:103EB000365001F0FE01817185800136102E10D040
:103EC00057F836100029F8D04945EDD0204632F099
:103ED000D1F9DBF80010081A38BF2846CBF80000EB
:103EE000E2E74AF20405C2F200052968002918BF7A
:103EF000494509D0204632F0BDF9DBF80010081A18
:103F000038BF0020CBF80000E96900270029C5E987
:103F10000077C5E902772F616F61AF6118BF49452E
:103F200009D0204632F0A6F9DBF80010081A38BF95
:103F30000020CBF80000A96BC5E907770029C5E987
:103F40000977EF622F636F6318BF494509D0204698
:103F500032F090F9DBF80010081A38BF0020CBF8D7
:103F60000000696D00270029C5E90E77C5E91077C3
:103F7000AF64EF642F6518BF494509D0204632F081
:103F800079F9DBF80010081A38BF0020CBF80000E0
:103F900049F69C56C2F200067469C5E91577C5E971
:103FA00017776F66AF66EF6649F6C055002CC2F210
:103FB000000546D149F66C70C2F200000068002886
:103FC00014BF016A002149F24810C0F6040026F02F
:103FD000ABFE044627F0BCF8204621217F222CF0BE
:103FE0007FF92046202100222CF07AF92046552125
:103FF0004FF6FF722CF074F92046102103222CF0AA
:104000006FF92046112103222CF06AF92046122173
:1040100003222CF065F92046132103222CF060F9CD
:1040200020465B2103222CF05BF940F6BE11C0F65E
:104030000601204623F006FB2046062126F0AEFBB3
:10404000746149F67470C2F20000316800680122A0
:1040500088F8002098F800307BB988F8002098F89C
:10406000003053B988F8002098F800302BB988F850
:10407000002098F80030002BEAD0411AB1F5967F65
:104080000CD2286841F28931884250D30C98D6E985
:1040900001120844511CC6E9010148E0012100BF9A
:1040A00088F8001098F800207AB988F8001098F87D
:1040B000002052B988F8001098F800202AB988F832
:1040C000001098F80020002AEAD049F6BC51C2F24C
:1040D000000109683060496829B108684FF47A71B5
:1040E000B1FBF0F000E0C820B168024641B172684F
:1040F0004FF47A73002A08BF01225943B1FBF2F250
:104100000021C6E90111824288BF0246D6E90310A8
:1041100010443061481C46F2B411C2F20101097822
:10412000F060C1F1640368A1204623F011FB49F659
:10413000B855C2F200052C68002C41D149F66C70CC
:10414000C2F200000068002814BF016A002149F291
:104150004810C0F6040026F0E7FD044626F0F8FFFC
:10416000204621217F222CF0BBF82046202100226E
:104170002CF0B6F8204655214FF6FF722CF0B0F81F
:104180002046102103222CF0ABF8204611210322F7
:104190002CF0A6F82046122103222CF0A1F820468C
:1041A000132103222CF09CF840F6BE11C0F6060144
:1041B000204623F047FA2046042126F0EFFA2C602F
:1041C00049F6B45049F67471C2F20000C2F200011F
:1041D00002680968012300BF88F8003098F8007071
:1041E0007FB988F8003098F8007057B988F8003027
:1041F00098F800702FB988F8003098F80070002FF8
:10420000EAD08A1AB2F5967F5BD9012288F800209D
:1042100098F800307BB988F8002098F8003053B93E
:1042200088F8002098F800302BB988F8002098F81A
:104230000030002BEAD0DAF80020016012F5A76206
:104240002BD00026002000BF5368042B11D31F1F62
:1042500027F003073A4423F0030703F00103BE42AB
:10426000314638BF3946002B1CBF0E463844083251
:10427000EAD164224AF6AB2300FB02F1CAF6AA2374
:10428000A1FB0313A2EBD33748B106FB02F1B1FB4C
:10429000F0F1C1F16401CEB202E0002064270026F3
:1042A000C0F5404040F2FE31820A08404AF2A101C6
:1042B0004843830DF8B2009007A12046019623F0F1
:1042C00047FA0FB0BDE8F08F2575204650530A25F8
:1042D000752525204350550025752E2575206B42E8
:1042E000207573656420282564202525290A256406
:1042F000252520667261672E000000002DE9F04F31
:1043000085B00E9E1D46002B834608BFB6F5807F04
:1043100068D0DDF83C800023019301A8ADF80810B7
:10432000CDF80A30ADF80E20ADF81010ADF812201F
:10433000294632464346071D00F1080900F10C0AE0
:104340002CF0B0FF38462946324643462CF0AAFFEF
:1043500048462946324643462CF0A4FF504629469B
:10436000324643462CF09EFFBDF90410BDF908709B
:10437000BDF90C60BDF91040B9423846BDF906C020
:10438000BDF90A30B8BF0846A6422546B8BF354633
:10439000A842B8BF0546B942C8BF0F46A642C8BF2B
:1043A0003446A742C8BF3C46A11CBDF90E60BDF90A
:1043B00012409C451A46A5F10200B8BF6246A642CB
:1043C0002546B8BF3546AA42B8BF15469C45C8BF6A
:1043D0006346A642C8BF3446AF1EA342C8BF1C46B0
:1043E000A21C03E00139013A00200027ABF80000CD
:1043F000ABF80270ABF80410ABF8062005B0BDE8CE
:10440000F08F00002DE9F04383B0044638B949F637
:104410006C70C2F200000468002C00F09F80D4F899
:1044200054010128C0F29A8094F82800400700F156
:104430009580002963D02068D0F810C0CCF3011318
:1044400043F00203032B14BF0746871C3F88032B4E
:1044500014BF831C0346013F1B880FFA87F9B1F98B
:104460000070B1F90260B1F90450013BB1F90620C6
:104470000FFA83F827EAE77726EAE6714D45ADF8AB
:104480000470ADF80610A8BF4D464245ADF808507F
:10449000B8BF1346AF42ADF80A305FDC1AB29142A2
:1044A0005CDC5FEA8C7130D482690AB101A9904763
:1044B000B4F850E1BDF90410BDF90620BDF908308B
:1044C000BDF90AC0BEF1000F35D004F130007746C7
:1044D00004E000BF013F00F108001ED0B0F9005019
:1044E000A942F7DBB0F90250AA42F3DBB0F904505D
:1044F000AB42EFDCB0F90650AC45EBDC2EE000201F
:10450000A4F8500103B0BDE8F083C9EA08400021D7
:10451000C4E90C106068012119E0BEF11F0F0CD92D
:104520004FF0000EA4F850E1C4F830E0A4F8349045
:10453000A4F8368008E04FF0000E04EBCE000186B0
:1045400042868386A0F836C060680EF10101A4F8A7
:10455000501118B1017D01F0FE01017503B0BDE8F5
:10456000F08300002DE9F047002853D0436804464B
:10457000002B4FD040F2200946F2FC0846F2001A08
:104580000026C2F20009C2F20108C2F2010A19466D
:1045900006E000BF002F08BFBDE8F087636839461A
:1045A00020688B4200F104028F580BD0A5680B588D
:1045B0008D420DD0002B18BF9F50F7B13B5049459D
:1045C0000DD1E7E76760B7B13E50494507D1E1E754
:1045D000002BA36014BF9E5066604945DAD0D8F81E
:1045E000000031F047FEDAF80010081A38BF3046F4
:1045F000CAF80000CEE70020A06049450AD0D8F8EC
:10460000000031F037FEDAF80010081A38BF002039
:10461000CAF80000BDE8F087002814BF40680020F9
:1046200070470000006808444068704700680858F8
:1046300070470000002814BF806800207047000009
:104640002DE9F0410168044611F108082ED046F228
:10465000FC00C2F20100066801F10B0020F003002B
:1046600007460C2898BF0C270025B0F5803F28BFCF
:104670002F463046394601F07DFB014630463A462A
:1046800001F04EFC20B346F20011C2F2010146F2E5
:1046900004130A68C2F201031F6842440A60BA4266
:1046A00088BF17461F602168054603E040F22005D9
:1046B000C2F200050020685060686A1850606068A7
:1046C000002818BF4550A0686560002808BFA56095
:1046D0002846BDE8F0810000F0B581B0002849D03F
:1046E00007460D46FBF7BAFF00214DB97A5C2AB3A5
:1046F000130625D401223AE00122013D1144F5D0F0
:104700007A5C002AF2D01306F6D502F0E003C02B43
:1047100002D10222F1E700BF02F0F003E02B01D149
:104720000322EAE702F0F802F03AB2FA82F2530901
:10473000DA074FF0010218BF9A00DEE7002216E008
:1047400002F0E003C02B01D1022210E002F0F003DE
:10475000E02B01D103220AE002F0F802F03AB2FAAB
:1047600082F25309DA074FF0010218BF9A00801A4B
:10477000814201D901B0F0BD3A4400BF535C4D1CE9
:1047800085427B54F6D855186C788E1C7B1886426F
:104790005C70EFD8AE78CC1C84429E70EAD8EE787C
:1047A00004318142DE70E9D9E4E700002DE9F04FE1
:1047B00093B0B8B38A4600294FF0000400F0A082FD
:1047C00080460078002800F09B821C9911F0060FAB
:1047D0002AD00024012142F2014201E01879043478
:1047E0000D2804D801FA00F3134240F0458108EB8C
:1047F000040358780D2804D801FA00F7174240F056
:10480000388198780D2804D801FA00F7174240F053
:104810003281D8780D28E1D801FA00F71742DDD0AF
:10482000033429E100246BE21E460020012B0C908A
:10483000C0F26182C807CDF80080CDE9062A40F0B9
:104840001F814546002400BF00200E9028460EA977
:1048500032F0A2F8814618F804000E9900280D9154
:1048600000F0CC80B0B2CDE9024605904FF0FF30A9
:10487000002300224FF0000800240FAE01950EE047
:10488000099BAC46421C0E9C08BF0B46019D0D9A2D
:10489000295D0E92DDE907A2002900F0A7800A90A9
:1048A00028460DA90B9409934F46144632F074F82C
:1048B00005468146601C089000204FF0000B0494D0
:1048C0000F9004E0DAF814A0BAF1000F12D0DAF871
:1048D0000040504631463A464B46A0470028F1D0AA
:1048E0009DF84A00C00620D5BBF1000F08BFD34693
:1048F000E8E700BFBBF1000F07D0DBF800405846E7
:1049000031463A464B46A0470FE0202F08D34FF6DA
:10491000FF00874204D042F20C00874240F04F80F3
:104920000020ADF84200ADF84000BDF940008044E1
:1049300000280698C8BF80440FFA88F1059A0B9C9E
:10494000081A90422046D8BF4FF0FF300A9B5A1CED
:1049500018BF18460A2F00F03E800D2F00F03B8054
:10496000A7F59C4245F2A6139A42C0F03480A7F105
:1049700020023F2A3FF684AFDFE802F02D202020FE
:1049800020202020202020202D2D2D202020202000
:104990002020202020202D2D2020202020202020FD
:1049A0002020202020202020202020202020202007
:1049B00020202020202020202020202D60E7079884
:1049C000008900EBD03000B24110ADF84210022156
:1049D00001EB6000A7E7DDF81CA0002C08BF10F178
:1049E00001020DD0049A099BAC46B946411C0BD07C
:1049F000029CDDF80080039EBCB181E1002313E03E
:104A0000049A00200B4602E0654620464F46DDF83A
:104A10000080039E3AB10D2F27D1029C0A2D08BFBA
:104A20000E9828B966E1029C0E98002800F0628179
:104A300098F8001004440A290C9400F05B810D29B9
:104A400000F0588118F804000A2800F051810D2860
:104A500000F04E81002800F04D81F01A06B2002EC1
:104A600008EB04053FF7F0AE44E1029C0028DFD1DB
:104A700040E1013400E00234002818BF01343FE176
:104A80000DADC3460027002400200E9058460EA905
:104A900031F082FF824618F804000E9900280D912B
:104AA00000F0E180B0B205900020CDE902460B9005
:104AB0004FF0FF304FF00008002100240991D1464B
:104AC0000A900BE00127DDE90D0408F101080E90C2
:104AD0001BF80400D146002800F0BA805846294649
:104AE00031F05AFFB9F1230F824605D1002FE9D0EA
:104AF000022F0BD10027E6E7012F05D1B9F1200FD6
:104B00000CBF02270127DEE7089706E0012F06BF4A
:104B10000020089008974FF02309079E002708F10E
:104B200001000F97049004E0002F08BF3746766914
:104B300066B1356830460FA94A465346A847002853
:104B4000F5D09DF84A00C006EED418E037B13E68B3
:104B500038460FA94A465346B04710E0B9F1200F36
:104B600008D34FF6FF00814504D042F20C00814586
:104B700040F062800020ADF84200ADF84000BDF981
:104B80004000099F002807440698C8BF074439B26F
:104B9000059A081A90422046D8BF4FF0FF300A9B72
:104BA0005A1C18BF1846B9F10A0F00F06F80B9F10E
:104BB0000D0F00F06B80A9F59C4245F2A6139A42B6
:104BC000C0F06480A9F120023F2A00F22280DFE8D1
:104BD00002F05D20202020202020202020205D5D6C
:104BE0005D20202020202020202020205D5D20200E
:104BF00020202020202020202020202020202020B5
:104C000020202020202020202020202020202020A4
:104C1000205D421C0E9C0B9A099708BF0A461BF8A0
:104C200004100B920D9A089FDDF8108000290DAD3D
:104C30000E927FF444AF57E00798008900EBD03024
:104C400000B24110ADF84210022101EB600094E780
:104C5000DDE90A32D146581C08D0029CDDF80080FC
:104C6000039E1CB34CE00E9B00221FE02346B8F1CC
:104C7000000F16D0DDF80080DDE90246B9F10D0F16
:104C800014D1BAF10A0F08BF0E9B0FE034BB421CCF
:104C9000089F0B9A0DAD25D100230A46B8F1000FED
:104CA000E8D1DDF80080DDE902460E9B13B398F8E9
:104CB00000001C440A280C941CD00D281AD018F8A7
:104CC00004000A2814D00D2812D098B1B01A06B2E8
:104CD000002E08EB040B3FF7D7AE0BE0089F03460E
:104CE0000DAD03E00346B6E7D14603460B9AB2E7A3
:104CF00001340C9424B90CA9404631F04DFE0C9CB3
:104D0000204613B0BDE8F08F2DE9F04F83B00028A6
:104D100000F0AC801546002A00F0A8800446284622
:104D20000F46FBF79BFC002800F0A08006462046BB
:104D3000FBF794FC00EB06024FF000010195EFB980
:104D400001EB060C6245029436D2029816F003027B
:104D50000844A6F1010166D0019D012A2B4613F8F3
:104D6000017B00F8017B62D11D460E460329C0F08D
:104D70007D806DE00123013F1944E1D0635C002B8D
:104D8000DED01D06F6D503F0E005C02D02D10223CA
:104D9000F1E700BF03F0F005E02D01D10323EAE7BE
:104DA00003F0F803F03BB3FA83F35D09EB074FF030
:104DB000010318BFAB00DEE7029BA6F1030EF21859
:104DC000A2F101095D1EA6F1020A34462F1800EB7C
:104DD000040897F801B0A8F1010209EB000362454D
:104DE00083F801B0B1D315F8008000EB0A026245E8
:104DF00009F80080A9D317F8018C00EB0E02624578
:104E000003F8018CA1D317F8022C043C03F8022C00
:104E10000219A9F10409AEF1040E043D6245AAF19C
:104E2000040AD3D291E7019D03291FD310E06B78C8
:104E3000022A00F8013B04D10235023E032915D3B2
:104E400006E0AA78033500F8012B033E03290DD3B1
:104E5000291F043811F8042F043E00F8042F4A7863
:104E600042708A788270CA78C270F3D103B0BDE80C
:104E7000F08F00002DE9F04F83B0129F0DF1300C40
:104E80001E46DDE910489CE808188A46814617F05E
:104E9000020015460190029247D1B8F1000F0AD0E6
:104EA000F8070AD017F00C0018BF012040EA0C00E8
:104EB000A8EB000801E04FF00008A34518D2BBF1B1
:104EC0001F0F15D86FEA0B012144CBF11F0503EB2F
:104ED0000B00A94238BF0D46691C3022FCF75EF971
:104EE000DDF838C00C9B05EB0B00029D00F1010BB7
:104EF000F8071AD0C34518D2BBF11F0F15D86FEAB7
:104F00000B014144CBF11F0503EB0B00A94238BF55
:104F10000D46691C3022FCF741F9DDF838C00C9BC6
:104F20000BEB0500029D00F1010BF80635D50F983B
:104F3000790510D4BBF1000F0DD0A34518BFC345B0
:104F400009D1BBF101010A4618BFABF102021028DA
:104F500018BF0A469346102807D117F020000BD13E
:104F6000BBF1200F08D278200BE002280DD1BBF155
:104F70001F0F0AD8622004E038B1BBF1200F04D221
:104F8000582003F80B000BF1010BBBF11F0F17D8D2
:104F9000302003F80B000BF1010BBBF11F0F0FD8F2
:104FA000BCF1000F01D02D2006E0780703D43807AC
:104FB00006D5202000E02B2003F80B000BF1010B9D
:104FC000B8072C460ED1C3452C460BD2A8EB0B07D5
:104FD0002A4600BF202051463346541CC847013F93
:104FE0002246F7D1BBF1000FCDF8008010D00C980D
:104FF000A0F1010818F80B00514622463346ABF1E8
:105000000105671CC847002D3C46AB46F2D100E0C5
:105010002746019888B10299DDF80080781A40454A
:105020000DD24D42202051463A4633467C1CC8479B
:10503000281940452746F5D302E03C4600E03C46AF
:10504000204603B0BDE8F08F9A4238BF88547047BD
:105050007047000048F20401411A002011F1030FCB
:1050600038BF4FF0FF30704748F20101411A00206D
:10507000032938BF0120704710B510B304460078EB
:105080003A281ED140F23861C0F606012046FBF7EF
:1050900007FBC8B140F23F61C0F606012046FBF7AE
:1050A000FFFAA0B140F24761C0F606012046FBF7C7
:1050B000F7FA01464FF0FF30002908BF48F203001D
:1050C00010BD4FF0FF3010BD48F2010010BD48F296
:1050D000020010BD48F2020188420AD048F20301E2
:1050E00088421CBF4FF0FF30704712B1013A00BE3A
:1050F000FCD10020704700002DE9F04F97B08B469F
:10510000209945F251091F469246C0F60009002435
:105110000E91BBF1000F18BF814600BF38782546BD
:10512000002800F0CF84252806D059462A46534649
:105130006C1CC8470137F1E74FF00008394611F8F9
:10514000010FA0F12002102A00F273800123DFE892
:1051500002F00970700B707070707070700D700FCD
:1051600070701100082305E0102303E0042301E020
:10517000022300BF3A4612F8020F48EA0308A0F1E2
:105180002006102E00F258800123DFE806F00955B2
:10519000550B555555555555550D550F5555110030
:1051A000082305E0102303E0042301E0022300BFED
:1051B000394611F8030F48EA0308A0F12006102E23
:1051C0003CD80123DFE806F0093A3A0B3A3A3A3A7A
:1051D0003A3A3A0D3A0F3A3A1000082304E0102305
:1051E00002E0042300E0022317F8040F48EA030852
:1051F000A0F12006102E23D80122DFE806F00E21B0
:1052000021122121212121212116210C21210900F6
:1052100048EA020892E70222FAE7082248EA02086E
:105220008CE7102248EA020888E7042248EA0208CC
:1052300084E73946013703E0023701E003371146BE
:10524000A0F130020E9CD2B2092ACDF8349000F2BF
:1052500081804FF0000900BF09EB8901490051FA34
:1052600080F17878A1F13009A0F13002D2B2092A98
:1052700000F22F8109EB890100EB4101B878A1F11F
:105280003009A0F13002D2B2092A00F22781F97860
:1052900009EB890200EB4200A1F13002D2B2092AE7
:1052A000A0F1300900F2238117F8040F09EB8902FD
:1052B00001EB4201A0F13002D2B20A2AA1F1300979
:1052C000CAD32E2867D1394611F8010F48F48068F7
:1052D000A0F13002D2B2092A4FD8791D4FF0000E4A
:1052E0000EEB8E02520052FA80F211F8030CA2F17A
:1052F000300EA0F13003DBB2092B00F236820EEB48
:105300008E0200EB420211F8020CA2F1300EA0F165
:105310003003DBB2092B00F22A820EEB8E0200EB87
:10532000420211F8010CA2F1300EA0F13003DBB201
:10533000092B00F21E820EEB8E0200EB420211F8E6
:10534000040BA2F1300EA0F13003DBB20A2BC7D35D
:105350000F1F22E02A281AD154F8040B0028814696
:1053600048BFC0F10009002811F8020F48BF48F0FB
:1053700002080F462E28A6D00DE02A2840F0B38060
:1053800054F8041B17F8020F21EAE17E05E04FF004
:1053900000092E2897D04FF0000EA0F168014FEAC7
:1053A0007103092BCDF830B023D801214FF480725E
:1053B000DFE803F0050E121F1F1F1B1F1F1B3946BE
:1053C00011F8010F682840F098800221C0220CE0FB
:1053D00001214FF4007208E0394611F8010F6C28E2
:1053E00040F08F8002214FF44072785C48EA020856
:1053F0000F44A0F12502532A00F28B8008214FF0C0
:10540000100BDFE812F0820086008600860086001E
:10541000860086008600860086008600860086005C
:10542000860086008600860086008600860086004C
:10543000860086008600860086008600860086003C
:10544000860086008600860086008600860086002C
:105450008600860086008600860086005900860049
:10546000860086008600860086008600EC008600A6
:1054700086008600860086008600860086008600FC
:105480009200950054008600860086008600540035
:1054900086008600860086008600F7005900860098
:1054A0008600B4008600540086008600EC0028F0D8
:1054B00010084FF00A0B92E03A4612F8011F48F428
:1054C000887856294FF0100140F087805620174603
:1054D00090E001372E283FF4F6AE5CE702372E2825
:1054E0007FF459AFEFE64FF0000E0F4655E7033754
:1054F00008462E283FF4E7AE4DE748F080080F46F7
:1055000077E748F480780F4673E70E946C1C2520EB
:1055100001E00E946C1CDDF830B0DDF83490594693
:105520002A465346C8470137F8E50221622061E068
:1055300018F0020640F0C781B9F1020FC0F02E82C8
:10554000DDE90CB80B960E94C9F10006002400BFEB
:105550002A19202059465346C047013430190130DA
:10556000F6D125440E9C0B9E09F101081AE254F86D
:10557000041B08780E9400280A46089100F0348233
:105580007146BEF1000FF34608BF4FF0FF31A1F1A5
:10559000040CA1F1030E8B1E4E1E00240899214419
:1055A0004A78002A18BFA64200F092818A78002A21
:1055B00018BFA34200F01482CA78002A18BFA6457B
:1055C00000F010820979002904F1040102D0A445F9
:1055D0000C46E3D1089A114405E24FF0100B40F05D
:1055E0000801582908BF48F02008642805D0692818
:1055F000594602D028F00C088B465FEA485148BF54
:1056000028F00108562817D0692801D0642829D12C
:105610005FEA8850CDF824E035D45FEAC85048D41A
:105620005FEA486000F1A780D4F800C05FEA086034
:1056300048BF0FFA8CFCA0E054F8040BDDF830B042
:105640004168DDF834900E680BEB05010F96036896
:10565000AAEB050248460E940096FFF74DFD44194B
:1056600001375BE55FEA885033D45FEAC85000F148
:1056700092805FEA486000F12D8126685FEA086049
:1056800048BFB6B227E1E01D20F00700024643689C
:1056900052F8080B50EA030108BF28F01008CDF8B3
:1056A00028A00E92089359BB18F4806128D00022DC
:1056B00055E054F804CBBCF1000F08BF28F01008E7
:1056C000BCF1000F0E9476D118F4806073D00026E0
:1056D000EFE0E01D20F00700466850F8084B0E9000
:1056E00054EA060008BF28F010080028CDE909EAAE
:1056F00040F0838018F4806000F07F800022A4E0F6
:1057000010EBE37080EAE37443EBE37080EAE37646
:1057100008F0200080F06100F6304FF0000A0B9096
:10572000204631465A460023FBF7C0FC00FB1B42D3
:1057300002F0FE030A2B0B9B38BF3023B4EB0B04A3
:1057400076F1000613440AF101020FAE06F80A30A2
:1057500005D3BAF11F0F924604460E46E0D30898CF
:105760000FA9C00FCDE9001273E0CF1E15E68F1E02
:1057700013E64F1E11E694F800C0BCF1000F08BFFD
:1057800028F01008BCF1000F0E946ED118F4806060
:105790006BD000268AE054F8046B002E08BF28F076
:1057A0001008002E0E9440F0A18018F4806000F0E4
:1057B0009D800023B6E008F0200181F06101604681
:1057C00001F1F60E0023BCF1000F48BFCCF1000040
:1057D000B0FBFBF1724601FB1B0606F0FE040A2C2F
:1057E00038BF302232445E1C58450FA8C25460D3E3
:1057F0001F2B33460846EBD35BE008F0200080F017
:105800006100F6304FF0000A0B9000BF2046314691
:105810005A460023FBF74AFC00FB1B4202F0FE0342
:105820000A2B0B9B38BF3023B4EB0B0476F1000638
:1058300013440AF101020FAE06F80A3005D3BAF19B
:105840001F0F924604460E46E0D30FA8CDE9000292
:105850000020CDE9020B0998DDF830B0CDE904094C
:10586000DDF83490DDF828A08CE008F0200181F00C
:105870006101604601F1F60E0022BCF1000F48BF45
:10588000CCF10000B0FBFBF1734601FB1B0606F0F8
:10589000FE040A2C38BF30233344561C58450FA849
:1058A000835403D31F2A32460846EBD30E980430A4
:1058B0000E904FEADC70CDE9020B09980FA9CDE9F3
:1058C0000016049058E0DDF830B04FF0010869E0B0
:1058D000013188E02678002E08BF28F010080E94C9
:1058E00026BB18F4806021D000223BE008F02000A5
:1058F00080F0610000F1F60C002200BFB6FBFBF067
:10590000614600FB1B6303F0FE040A2C38BF302104
:105910001944531C5E450FAEB15403D31F2A1A46D7
:105920000646EBD30FA8CDE9000321E008F02000E4
:1059300080F0610000F1F60C002300BFB6FBFBF025
:10594000614600FB1B6202F0FE040A2C38BF3021C6
:1059500011445A1C5E450FAEF15403D31F2B13465E
:105960000646EBD30E9804300E900FA8CDE9000246
:10597000002002A981E80148CDF81490DDF83490A8
:10598000DDF830B0484659462A465346CDF81880CF
:10599000FFF770FA04460137FFF7C0BBDDF830B0FF
:1059A0004FF0020814F8040B2A460E946C1C0D9D4F
:1059B00059465346A84776B1C8450CD2A9EB08050D
:1059C000DDF8349022462020594653460134C8471A
:1059D000013DF7D1A7E5DDF834900137FFF79EBB15
:1059E000023100E00331DE46089AF346891A08F4D2
:1059F00080627145CDF828A038BF8B46002A0B92F3
:105A000008BF8B4618F0020A20D1CB451CD2CDF836
:105A10001CA0A9EB0B080A9EDDE90CBA0024CDF806
:105A200024E000BF2A19202059463346D0470134CC
:105A3000A045F7D10898DDF824E00078DDF81CA037
:105A400009F1010B254401E00BF1010BD0B10899DC
:105A500001F101080DE000BF76466C1C0C992A4646
:105A60000A9B0D9DC0B2A84718F8010B2546B64603
:105A700048B10B990029EFD0BEF1000F17D0AEF15D
:105A80000106EAE72C46BAF1000F14D0DDF828A091
:105A9000CB4512D2A9EB0B05DDE90CB9224620203B
:105AA000594653460134C847013DF7D13BE52C46E2
:105AB000BAF1000FEAD1DDF828A0DDE90CB9013711
:105AC000FFF72CBB2A46002059465346554528BFB0
:105AD000AAF10102C847284617B0BDE8F08F0000C0
