:020000040800F2
:10000000D0040120E5020008E5660008795E0008DA
:10001000E1660008B91D00085D74000800000000DA
:100020000000000000000000000000005967000808
:10003000F91F00080000000055670008B1670008BC
:10004000FF020008FF020008FF020008FF0200088C
:10005000FF020008FF020008FF020008FF0200087C
:10006000FF020008FF020008FF020008FF0200086C
:10007000FF020008FF020008FF020008FF0200085C
:10008000FF020008FF020008FF020008FF0200084C
:10009000BD1D0008FF020008FF020008FF02000863
:1000A000FF020008FF020008FF020008FF0200082C
:1000B000FF02000889680008FF020008FF0200082C
:1000C000FF020008FF020008FF020008FF0200080C
:1000D000FF0200083D740008FF0200084D7400088C
:1000E000FF020008FF020008FF020008FF020008EC
:1000F000FF020008FF020008FF020008FF020008DC
:10010000FF020008FF020008FF020008FF020008CB
:10011000FF020008FF020008FF020008FF020008BB
:10012000FF020008A11E0008FF020008FF020008ED
:10013000FF020008FF020008FF020008FF0200089B
:10014000FF020008FF020008FF020008FF0200088B
:10015000FF020008FF020008FF020008FF0200087B
:10016000FF020008FF020008FF020008FF0200086B
:10017000FF020008FF020008FF0200080000000064
:10018000FF020008FF02000800F002F800F09AF8F1
:100190000AA090E8000C82448344AAF10107DA45E2
:1001A00001D100F08FF8AFF2090EBAE80F0013F09A
:1001B000010F18BFFB1A43F0010318473C720600F9
:1001C0005C720600103A24BF78C878C1FAD852078A
:1001D00024BF30C830C144BF04680C6070470000C1
:1001E0000023002400250026103A28BF78C1FBD840
:1001F000520728BF30C148BF0B6070476E2900F01E
:100200009382702900F0E18366290BF008A5652927
:100210000BF005A567290BF002A561290BF001A5DC
:1002200003681B0A28BF41F08001692900F0408261
:10023000642900F03D82752900F03A826F2900F0B0
:100240006F83782900F0AD83E92900F00983E42960
:1002500000F00683F52900F00383EF2900F06C839A
:10026000F82900F0AC830368DB0928BF41F0800166
:10027000632901F0BB80732901F0C080E32901F0FC
:10028000CB80F32901F0D080002070471FB54BF0E0
:10029000B9FC9DE8030001F093FB01F0BBF90400F9
:1002A000002000214BF098FC401C606000200021E1
:1002B0004BF07CFCE06001F0BFF81FBD10B501F011
:1002C00024F910BD01F079F91146FFF7DFFF41F085
:1002D000A3FC01F03FFB03B4FFF7F0FF03BC00F009
:1002E0004BFC00000948804709480047FEE7FEE74D
:1002F000FEE7FEE7FEE7FEE7FEE7FEE7FEE7FEE7D6
:1003000004480549054A064B704700007568000817
:1003100089010008D0F20020D0040120D0F4002090
:10032000D0F4002053EA020C00F069802DE9F04B74
:100330004FF00006002B1FBFB3FA83F503FA05F454
:1003400024FA05F65E4012BF1643B2FA82F502FAAD
:1003500005F4C5F120051EBF22FA05FC44EA0C0491
:10036000203556EA044C4FEA144418BF641C4FF081
:1003700000084FF00009904271EB030C39D30029BB
:1003800019BFB1FA81F701FA07F6B0FA80F700FA5F
:1003900007F6C7F120071EBF20FA07FC46EA0C0645
:1003A0002037B6FBF4FCA7EB0507103F07F01F0B47
:1003B000CBF120062CFA06F60CFA0BFB44BFB34631
:1003C0000026202FA4BF5E464FF0000B5BEA060C10
:1003D00008BF4FF0010B19EB0B0948EB0608ABFB0C
:1003E000027C06FB02CC0BFB03CCC01B71EB0C01A7
:1003F000C1E70B46024641464846BDE8F08B13B5BF
:10040000084318BF4FF0FF300146AFF30080BDE84E
:100410001C4070470FB4044910B503AA029800F0BD
:10042000AFF910BC5DF814FB5C01002030B5054647
:100430000B462A4613F8014B12F8010B08B1A042F3
:10044000F8D01CB1002802D06D1CF1E7284630BD61
:1004500040EA0103024630B59B0710D14FF001344A
:1004600000E008C208C91D1B9D4315EAC41FF8D04F
:1004700013F0FF0102F8011B0DD01B0AF8E711F879
:10048000013B002B02F8013B05D011F8013B002B8A
:1004900002F8013BF3D130BD10B5431C02E010F867
:1004A000011B71B18107FAD14FF0013202C88C1AD9
:1004B0008C4314EAC211F9D0C01A0A0603D0C01E38
:1004C00010BDC01A10BD0A0401D0801E10BD090263
:1004D000FCD0401E10BD4FF000020429C0F0128075
:1004E00010F0030C00F01B80CCF1040CBCF1020FE7
:1004F00018BF00F8012BA8BF20F8022BA1EB0C01BC
:1005000000F00DB85FEAC17C24BF00F8012B00F8B1
:10051000012B48BF00F8012B70474FF0000200B5D7
:10052000134694469646203922BFA0E80C50A0E816
:100530000C50B1F12001BFF4F7AF090728BFA0E8C4
:100540000C5048BF0CC05DF804EB890028BF40F890
:10055000042B08BF704748BF20F8022B11F0804FD2
:1005600018BF00F8012B704730B44FF0013C50F831
:10057000042B51F8043BCCFA52F4D51A20D1FCB923
:1005800050F8042B51F8043BCCFA52F4D51A17D189
:10059000B4B950F8042B51F8043BCCFA52F4D51AF4
:1005A0000ED16CB950F8042B51F8043BCCFA52F43C
:1005B000D51A05D1002CDAD030BC4FF000007047BE
:1005C00029BAB1FA81F111F01801D1F1200084406B
:1005D000F2D1CA40CB4012F0FF0213F0FF0330BC4F
:1005E000D01A704770477047704770B504468569E8
:1005F0000068C10601D5302600E02026C00707D0DC
:1006000070BDD4E9012130469047206A401C206229
:100610006D1EF6D570BD70B5044685690078C007BB
:1006200007D170BDD4E9012120209047206A401CE9
:1006300020626D1EF6D570BD09684A0501D540B22D
:100640007047C905FCD500B2704709684A0501D555
:10065000C0B27047C905FCD580B2704770B50C4672
:100660000546012A05D02878800600D5EA690023CE
:1006700002E0012305E05B1C934202D2E05C00280B
:10068000F9D1A869E618C01AA861286A1844286236
:100690002846FFF7AAFF04E0D5E9012114F8010B71
:1006A0009047B442F8D32846FFF7B5FF70BD00006D
:1006B0002DE9F0410646002410687529314616A53B
:1006C00010D0FFF7B9FF002802DA404213A507E077
:1006D00031688A0701D512A502E0490704D511A5A2
:1006E000012401E0FFF7B1FF00210A2206F12407EF
:1006F00009E0B0FBF2FCB0FBF2F302FB1C0030306F
:1007000078541846491C0028F3D123462A4630461F
:10071000BDE8F04100F07BBA000000002D000000B1
:100720002B0000002000000011680268006A5305D9
:1007300001D508700AE0D30501D5088006E013064C
:1007400003D5C217C1E9000200E00860012070472C
:1007500001694A1C02610878704700B58FB0CDE985
:1007600001310021059105497944CDE90310114675
:10077000684600F035F90FB000BD0000E5FFFFFF4F
:10078000074B70B50D467B44FFF7E7FF044628464C
:1007900000F04EFE10B14FF0FF3070BD204670BD2E
:1007A000FBA301002DE9FF5F15468A460446DFF8EA
:1007B000AC80F8440027D8E900103E46CDE900108F
:1007C00010E03AF816106A4602A800F0D1FE411C6B
:1007D00007D02178890603D5E269391891420DD8EE
:1007E0000744761C2078800602D5E069B84205DD12
:1007F000AE42E6DB3AF816000028E2D1A069C01B41
:10080000A0612046FFF7F1FED8E90010CDE9001005
:10081000002017E03AF818106A4602A800F0A8FE77
:10082000B0F1FF3F81460BD000250DF1080B05E02C
:10083000D4E901211BF8050090476D1C4D45F7D305
:1008400008F10100B0428046E4DB206A38442062AF
:100850002046FFF7E0FEBDE8FF9F000072B40400F1
:100860002DE9F0418046D21D22F007020025D2E991
:100870000002F52915A614D0011E72F1000106DA56
:100880000023D0EB030063EB020211A608E0D8F8C6
:1008900000108B0701D50FA602E0490701D50EA66F
:1008A00001251146002408F1240704E000F06AF94C
:1008B00030323A55641C50EA0102F7D12B463246D9
:1008C00021464046BDE8F04100F0A1B9000000001B
:1008D0002D0000002B0000002000000030B400219B
:1008E00000F1240408E002F00705D208303542EA9E
:1008F0004372DB086554491C52EA0305F3D10468CE
:10090000002310A2250708D504F020040C4304D0CE
:10091000C46901230CA2641EC46130BC00F077B925
:1009200010B5044621461068FFF78FFE02462046A8
:10093000BDE810400023D1E7D21D22F00701D1E924
:100940000023CBE70000000030000000F0B40D46AB
:100950000188090502D5214C7C4402E01F4C7C44EF
:100960000E34002100F1240608E002F00F071209FE
:10097000E75D42EA03721B097754491C52EA0307F8
:10098000F3D102780023120704D5702D06D009B1E7
:10099000022311342246F0BC00F039B9012310348F
:1009A000F8E770B504460D4621461068FFF74DFE86
:1009B000024629462046BDE870400023C6E7D21D06
:1009C00022F00703D3E90023C0E70368126843F06D
:1009D000200303600823C3610023B7E7D4B20400F7
:1009E0002DE9F05F894604464FF0000ADFF874B144
:1009F000FB44C0F820A02046E1688847002874D056
:100A0000252806D0D4E901219047206A401C2062A5
:100A1000F1E700265F462046E16888472028054622
:100A200007DB312D05D2781910F8200C08B10643E8
:100A3000F1E7B00701D526F00406C4F81CA0002792
:100A4000C4F818A02A2D09D028464BF0A7F838B3CF
:100A500004EB8708303DC8F8185019E059F8041B1A
:100A6000204604EB87029161E1688847012F054623
:100A700018D1E069002820DA26F020061DE0D8F819
:100A8000180000EB800005EB40003038C8F8180073
:100A90002046E168884705464BF080F80028EED1F3
:100AA000012F0AD02E2D08D12046E16888477F1CEF
:100AB0000546022F46F02006C4DBA069002803DAB1
:100AC000404246F00106A061F00701D026F0100672
:100AD0006C2D0BD0682D09D04C2D39D06A2D35D016
:100AE000742D35D07A2D33D016E038E0E1682F46EA
:100AF00020468847B842054609D16C2F26D04FF4CE
:100B00008060E168064320468847054604E06C2F74
:100B10001AD04FF4807006430DB3A5F14100192897
:100B200002D8203546F400664A462946204626600B
:100B30004E46FFF763FB80B101280BD0F61D26F06F
:100B4000070000F1080956E74020E4E78020D8E7D5
:100B50000020D6E706F104094DE7284652E7206A4F
:100B6000BDE8F09F64B2040008B569468DF8000046
:100B70000320ABBE08BD000001491820ABBEFEE754
:100B80002600020030B5B0F10A0271F100034FEA0D
:100B9000900E4EEA817EB0EB0E0061EB91014FEAC0
:100BA000101E4EEA017E10EB0E0041EB11114FEAD0
:100BB000102E4EEA016E10EB0E0041EB11214FEAB0
:100BC000104E4EEA014E10EB0E0041EB1141401861
:100BD00041F100014FEAD00040EA41704FEAD101F3
:100BE0004FEA810444EA907410EB800544EB010461
:100BF0006D1944EB0404521BA3414FF0000348BF9E
:100C00000A3200D530BD401C41F1000130BD2DE954
:100C1000F0470D4699469246044600F124080168C3
:100C2000880604D5E06921F01001216000E0012070
:100C3000A84201DD471B00E00027A1697A1902EBF9
:100C40000900081AA0612078C00602D42046FFF7E8
:100C5000CCFC002608E0D4E901211AF806009047F0
:100C6000206A401C761C20624E45F4DB2078C006CA
:100C70000AD52046FFF7B9FC06E0D4E9012130206F
:100C80009047206A401C2062381EA7F10107F4DC5F
:100C900007E0D4E9012118F805009047206A401CBC
:100CA0002062281EA5F10105F3DC2046FFF7B3FC06
:100CB0002078000602D50220BDE8F0870120FBE77E
:100CC0002DE9FF4F0C461E464FF0FF378BB0D2E99F
:100CD0000001DDF860800A908A46C1F30A5505B923
:100CE0003D46002108464FF00000BAF1000F00F425
:100CF000400005DA00EB80004FF4400101EA5000AB
:100D00004FEA9059B9F1010F00DDB9460A9850EA4F
:100D10004A000ED044F61050A5F2FF3545432F147B
:100D2000B8F1000F1ED07542291E1EDDC9F1000268
:100D30001CE0B8F1010F4FF0000001D0302103E0BA
:100D4000F24305E02154401CB042FBDB3046002258
:100D5000002121540B99C1F80880C1E900200FB08F
:100D6000BDE8F08FBD1B6D1CDEE74A4600DA694224
:100D700006A800F0BBFC06AB93E8070003AB83E8D2
:100D8000070050460A994AF028FB8DE80700A0F5B5
:100D900000501F3800900398002D0ADD42F21F0119
:100DA0004A460844002303A9039068464AF092FD8E
:100DB00009E0A0F500504A461F38002303A903901C
:100DC00068464AF09CFD8DE807000004000C03D043
:100DD0004FF0FF30410800E01046B8F1000F03D09B
:100DE0000022009215461EE0751E05D4FFF7CAFECC
:100DF000303262556D1EF9D5B3460122084302D048
:100E000000227F1C04E02078302801D100227F1EC0
:100E1000002A099784D01DE0112D07DAFFF7B2FEF2
:100E2000303262556D1C50EA0102F5D1084302D000
:100E30000098C8B10EE00021681E05E0235C625CEA
:100E400063542254401E491C8142F7DBAB46A81B69
:100E5000401E0990002004F80B000B98099AC0F876
:100E60000880C0E9002B7AE711264FF0000857E709
:100E70002DE9F04F88460446D21D22F0070191B0BB
:100E8000D1E90001CDE90A014AF070FE02460B9853
:100E9000C00F01D02D2007E02068810701D52B204D
:100EA00002E0202101EAC000032A099001D0072AAC
:100EB00005DB03464146204600F0D8FB0BE12078D5
:100EC000800601D5E06900E00620B8F1650F814693
:100ED00006D0B8F1660F18D0B8F1670F70D131E0C5
:100EE0000020B9F1110F009001DB112301E009F19D
:100EF00001030AAA01A90CA8FFF7E2FEDDE90C70C4
:100F0000002609F10105834647E001204B46009089
:100F10004FF000470AAA01A90CA8FFF7D1FEDDE9AE
:100F20000DB00C995D46002610B909F101000D18AD
:100F3000B9EB050003D4C0F1FF3609F10105A5EBBB
:100F400009002BE0B9F1010F01DA4FF0010900208F
:100F5000B9F1110F0090484601DD112300E003466E
:100F60000AAA01A90CA8FFF7ABFEDDE90C704D46FB
:100F700000268346207800070AD4AB4500DA5D4698
:100F800001A8012D04DD411911F8011C302907D0F9
:100F90004F4502DA17F1040F04DA012082460FE010
:100FA0006D1EEEE7002F02DCED1B3E4403E0781CD3
:100FB000A84200DD7D1CB81B00F1010A4FF000477C
:100FC0002078000703D4AA4501DB4FF0FF3A002147
:100FD000B7F1004F0DF143088DF8431024D00220E3
:100FE0002B23002F01DA7F422D230A21021EA0F1BC
:100FF000010000DC5FB197FBF1FC97FBF1F201FB14
:101000001C7C17460CF1300C08F801CDEEE7A8F176
:10101000010003702188090501D5452100E0652103
:10102000A0F1010800F8011C09980FA9A1EB08071D
:10103000FF1D00B10120411901EBEA70A16938449C
:10104000081A401EA0612078C00602D42046FFF78F
:10105000CCFA099828B1D4E901219047206A401CB4
:1010600020622078C00622D52046FFF7BEFA1EE097
:10107000002E04DBB34502DD01A8805D00E03020D6
:10108000D4E901219047206A401C2062761CAAF115
:1010900001005FEA000A0AD100F0BCFAC0680168EA
:1010A000405CD4E901219047206A401C2062281E40
:1010B000A5F10105DCDC07E0D4E9012118F8010BFA
:1010C0009047206A401C2062381EA7F10107F3DC1C
:1010D0002046FFF7A0FA032011B041E62DE9F04FBA
:1010E00004460D46D21D22F0070089B0D0E90097D2
:1010F000484639464AF03AFD0246F80F01D02D2302
:1011000007E02068810701D52B2302E0202101EAB6
:10111000C0038DF820300BB1012000E00020032A2D
:10112000824601D0072A04DB2946204600F09EFAB9
:101130003FE12078800601D40D2500E0E569C7F382
:101140000A560D2D49DA00214FEA175B08464FF089
:101150000000002F00F4400007DA00EB80004FF49D
:10116000400100EBD07001EA60008115012901DD2A
:101170004FF0FF3100224FEA850CBCF1180F06D367
:101180001346ACF118004FF08052C24003E04FF418
:10119000801323FA0CF30CF10C0CBCF1200F04D3D8
:1011A000ACF1200C09FA0CF001E007FA0CF0002970
:1011B0004FF0004801DD18B90FE00ED140450CD3C7
:1011C00019EB02095F4121B9404502D19F4329EA49
:1011D0000209BBEB175F00D0761C2088000502D502
:1011E0007B48784402E07A487844193808AA3023CA
:1011F00002F80A30037C0AF10101002E0AF1020A0A
:1012000053546A4602DC4FF0300101E04FF03101E7
:101210004FF001088DF8001002D0A6F2FF3603E06F
:1012200059EA470100D06B4E002D02DC21780907F6
:1012300004D54FF002082E218DF80110C44600217C
:101240000BE0C7F303433F01C35C491C6D1E02F86A
:101250000830052908F1010801DA002DF1DC002130
:101260000CE000EB1973491C1B786D1E082902F86D
:1012700008304FEA091908F1010801DA002DF0DC05
:1012800021688B0602D516E0A8F10108E04505DDCE
:1012900002EB080313F8013C302BF5D0B8F1000F36
:1012A00009DD02EB080313F8013C2E2B03D10907DB
:1012B00001D4A8F10108002D05DD3E2102F8081037
:1012C0006D1E08F10108407C002E02F8080008F1AC
:1012D000010804DA2D20764202F8080002E02B20F3
:1012E00002F808000A214FF47A70864208F10108DA
:1012F0000BDB96FBF0F3303302F8083096FBF0F38B
:1013000008F1010800FB136601E0642E0CDB642089
:1013100096FBF0F3303302F8083096FBF0F308F157
:10132000010800FB136601E00A2E06DB96FBF1F0D4
:10133000303002F8080008F1010896FBF1F001FBDB
:101340001060303002F80800A16908F1010808EBCC
:10135000050202EB0A00081AA0612078C00602D438
:101360002046FFF742F9216A08AE01EB0A0020622D
:1013700004E0D4E9012116F8010B9047BAF1010A03
:10138000F7D22078C00602D52046FFF72EF96E4628
:1013900009E016F8010B3E280FD0D4E9012190474F
:1013A000206A401C2062B8F10108F2D22046FFF703
:1013B00032F909B00320BDE8F08F206A284420628A
:1013C00003E0D4E90121302090476D1EEBD3F8E70C
:1013D00096AA040002FCFFFF10B5436913B1AFF3F6
:1013E000008001E0FFF73AF9012010BD127800F10A
:1013F00024010A7000224A700122EDE711684FF0C3
:10140000FF32E9E710B5436913B1AFF3008001E0A3
:10141000FFF7C8F9012010BD128800F12401828471
:101420000022C2840122EDE711684FF0FF32E9E7A4
:10143000007B00F08000704710B542485421FFF750
:101440006CF841485421FFF768F840485421FFF7F1
:1014500064F83F493B483C4A3F4B08603D490A60BD
:101460003A491960531C0365481C10650120086542
:101470003B48344A39A1784400F0CEF920B93848C5
:1014800078440A3800F074FA37482F4A35A1784476
:1014900000F0C2F920B9344878440A3800F068FAFC
:1014A00032482A4A2FA1784400F0B6F920B92F48D3
:1014B00078440A3800F05CFA40232248DC0000211E
:1014C000224600F085F920B125487844543800F0D0
:1014D0004FFA1D4822464023002100F079F920B13F
:1014E00021487844543800F043FA18482246102323
:1014F000002100F06DF9002806D01C487844BDE8B2
:101500001040563800F034BA10BD104870B5006D68
:1015100020F001040B4800F0F7F90B4800F0F4F953
:101520000A4800F0F1F909E0206D20F0010520469D
:1015300000F0EAF9204600F071F82C46002CF3D1B7
:1015400070BD0000080100205C010020B0010020F7
:1015500000000020040000200800002072000000AD
:10156000D2A8040077000000C1A804009AA80400D3
:101570002DE9F04116460C46054600F043F8036895
:1015800093F80101012807D0FF2C12D8185D80B113
:1015900001202C70BDE8F081D3F8070132462146C6
:1015A00003F20713C7182846BC46BDE8F0410023E4
:1015B00060474FF0FF30EDE77047754600F0E0F907
:1015C000AE4605006946534620F00700854618B030
:1015D00020B5FEF795FEBDE820404FF000064FF025
:1015E00000074FF000084FF0000BAC46ACE8C00914
:1015F000ACE8C009ACE8C009ACE8C00921F00701BB
:101600008D46704710B500F005F8001D10BD00BFF5
:10161000C9A50400004870472402002070B50446A4
:10162000051F00F0B1F90068002C14BF446870BDBC
:10163000002C18BFAC423CBF20466468F8D3016858
:101640000A18AA4218BF456003D12A68054611440A
:10165000016028684119A1421CBF6C6070BD6168BF
:10166000696021680844286070BD00002DE9F041E0
:101670001F46044603260168072A01F4006004DBC4
:1016800008B116A505E016A503E008B115A500E010
:1016900015A521F010002060A069C01EA0610FB147
:1016A000401EA0612046FEF7A0FF4FB1D4E9012102
:1016B00038469047206A401C2062C01C206206E029
:1016C000206AFAE7D4E9012115F8010B9047761E4C
:1016D000F8D22046FEF79FFFBDE8F0814E414E0054
:1016E0006E616E00494E4600696E66002DE9F04756
:1016F000814616468AB0354878440DC88DE80D00FD
:1017000032487844801C03AC0DC884E80D0041F6D3
:101710009B300844372190FBF1F290FBF1F5A5F1E5
:10172000800501FB12041B3C02D56442012000E04D
:101730000020DFF898A080460027FA44AAF1BE0AEC
:101740000EE0E0070AD03246684607EB4701012366
:101750000AEB81014AF0D3F88DE8070064107F1C82
:10176000002CEED1194F7F44AE3F19E0E80715D0A9
:1017700007EB04100DF1180A90E80E008AE80E003D
:10178000C068F04201D1981908903246012306A999
:1017900003A84AF0B4F803AB83E807006D10641C9B
:1017A000002DE3D14FF0010332466946B8F1000F36
:1017B00003A802D04AF08EF801E04AF0A0F8C9E987
:1017C0000001C9F808200AB0BDE8F08710A604009F
:1017D00070B5C468A50713D0650211D4B2F5807F37
:1017E00009D0B2F5007F06D0B2F5806F08D1012391
:1017F00000F1240106E05D1E6FF07F46B54201D383
:10180000012070BD0161C361416024F47061114326
:10181000C160002070BD00002DE9F0410C46164665
:10182000070047D0104600F06FF82078611C61284F
:101830000AD0722802D077283CD102E0012500248A
:1018400005E00225042402E0082448F2020511F80C
:10185000010B2B2806D0622809D011F8010C74283E
:101860000AD00BE045F0030544F00204EFE745F031
:10187000040544F00104EAE744F010043846214628
:1018800008F026FB411C15D00021316171604FF436
:101890000071F560F1617061200704D530460222C5
:1018A000002100F0EBF8306D40F00100306530466B
:1018B000BDE8F0810020FBE72DE9F0410D4606462A
:1018C000104C206DC10704D0410804D020F0010461
:1018D000F7E722460EE0542000F0A1F807000ED0F2
:1018E000206D47F001010843542120653846FEF77A
:1018F00014FE3A4629463046BDE8F0418CE7002008
:10190000D6E70000080100202DE9F04704464FF01B
:1019100000094FF0FF37C568D4E90486A80707D04F
:10192000204600F05BF9304608F064FA002802DA3D
:101930003846BDE8F087280502D54046FFF76EFE21
:101940004C212046FEF7E9FD206D20F001002065C6
:101950004846EEE710B50446AFF300802046BDE8E8
:101960001040FEF7B8BC002801D0FFF705B970475A
:1019700010B500F091F9BDE81040FFF7F4BF00008A
:101980000048704704020020004870470C02002005
:10199000704770477047704738B504460A460020C4
:1019A0006946AFF30080002808BF38BD02460099A1
:1019B000204600F092F9012038BD012000F0C8B99E
:1019C000F8B5AFF30080054600200C46102000BF9C
:1019D0000646A819A0420DD9324669460020AFF349
:1019E0000080070008BF00F0B3F90098A04218BFBC
:1019F0000546C419FFF7C8FF05600746F01D20F033
:101A000007004619284600F061F9B44208BFF8BD46
:101A1000A21B31463868BDE8F84000F05EB970B5E9
:101A20000646FFF7B1FF056806F10B0020F007043A
:101A3000B4429CBF002070BD2B466A68BAB11068E2
:101A4000A04210D304F1080188423CBF506858609E
:101A500007D35168101941601168091B0160586073
:101A60001460101D70BD13465268002AE7D121464C
:101A70002846FFF791FF0028DED170BD2DE9F04127
:101A8000044616460D464769007B80072ED038462F
:101A900008F0FAF950BB3EB3012E02D0022E25D138
:101AA00004E0204600F033F905441DE0384608F014
:101AB000C7F9E168002841F01001E16005DA20462D
:101AC00000F058F80120BDE8F081C9030BD5626829
:101AD000E16A914200D81146A26911442269891A2B
:101AE000814200DD08460544002D01DA0220EAE7C4
:101AF000E16A6068E268814206D29103E06203D540
:101B000022F4003141F01002A6690027AE4213DC36
:101B1000E16A814201D90B4600E0034603EB060C63
:101B20002369ACEB030CAC4506DD814201D98C4640
:101B300000E084469C4505D1A760276042F0200064
:101B4000A5620DE0AD1BE669AE1B8142A66000D91F
:101B50000846C01A281A20605819606022F0200038
:101B600003490840E060002084F84870ABE70000BB
:101B7000BFCFD7FFC16821F4001141F08001C160DF
:101B800000218160016070472DE9F04781461446CD
:101B90000E464FF0FF383248D5685769054209D0E4
:101BA0003846A16908F0D6F9002811DB2C48C0435B
:101BB0000540E5602B4632464946384608F0F4F9C0
:101BC000A16920F00042B21A11440028A16103D09B
:101BD0002046FFF7CFFF4046BDE8F08770B50446CA
:101BE0000569C06A6168884200D80846E16821F446
:101BF0002011E160C90312D5A84208D02246411B3A
:101C00002846FFF7C1FF10B14FF0FF3070BD002034
:101C1000E562C4E90150E06820F48030E060002013
:101C200070BD10B50446C06820F02000E060A16AD5
:101C3000A06988420DD02046FFF7D0FFE06820F46D
:101C4000405040F01000E060A06AA0612069E062AE
:101C5000606044F24001E0688843E06010BD00002D
:101C60001000020070B505460C460A2000E06D1C0D
:101C7000FEF77AFF35B128780028F8D102E0641C1D
:101C8000FEF772FF14B120780028F8D1BDE870404B
:101C90000A20FEF769BF000010B5014602A0FFF759
:101CA000E1FF012010BD0000534947525452454402
:101CB0003A2052656469726563743A2063616E27E5
:101CC00074206F70656E3A200000000000210160F2
:101CD000C0E90110704710207047034640688C46E9
:101CE000002818BF88423CBF03464068F8D31868F4
:101CF0001844884207D00CF1030020F00700001DB3
:101D0000411A521A0146081D0A60FFF787BC10B538
:101D10000146C268900703D0900607D5886A0AE09A
:101D200000F01EF801210160881E10BD8B69486813
:101D300018440B69C01A91F848301BB191F849104A
:101D4000401A10BD1103FCD50028FADD401E10BD5D
:101D500010B500F009F8BDE81040FFF704BE000020
:101D6000004870470402002010B5012805D000216A
:101D700003A0FFF777FF012010BD09A1F8E70000DD
:101D800053494752544D454D3A204F7574206F6664
:101D90002068656170206D656D6F727900000000CC
:101DA0003A2048656170206D656D6F727920636FB0
:101DB0007272757074656400FFE7FEE780B540F6E7
:101DC000D400C2F2000000F0D9FB80BD80B58CB019
:101DD0000020019007900890012109910290039042
:101DE0000490059006900A910B9040F6D400C2F240
:101DF000000002A900F0F4F948B1FFE748F28E6054
:101E0000C0F60500FEF706FB00F0F8F8FFE748F221
:101E1000A860C0F60500FEF7FDFA0CB080BD00001A
:101E200080B54FF2C421C2F200010120087048F2CF
:101E3000C560C0F60500FEF7EDFAFFF7C7FF40F6F4
:101E4000D400C2F2000000F03DFF48B1FFE748F2C5
:101E50001670C0F60500FEF7DDFA00F0CFF8FFE7D8
:101E600048F25470C0F60500FEF7D4FA40F6D400EC
:101E7000C2F20000022100F089F948B1FFE748F200
:101E8000EC60C0F60500FEF7C5FA00F0B7F8FFE712
:101E900048F22770C0F60500FEF7BCFA80BD0000CE
:101EA00080B540F60410C2F2000001F045F880BD94
:101EB00082B001900198007810384AF6AB21CAF63A
:101EC000AA21A0FB01100009009000994BF63C509C
:101ED000C0F60400405C0199C8650098042807D347
:101EE000FFE701990868042262F30900886506E0AB
:101EF0000199086840F2FF3290438865FFE7019836
:101F0000806D02B07047000086B0059000208DF80B
:101F100013000598806A03900598806910BBFFE75D
:101F20000398029003281BD80299DFE801F0020D04
:101F30000218059890F82F00C00720B1FFE7012094
:101F40008DF81300FFE70CE00598C06AB0F1C07F80
:101F500004D1FFE701208DF81300FFE701E000E066
:101F6000FFE745E005988069B0F5005F25D1FFE700
:101F70000398019003281ED80199DFE801F00206BA
:101F8000021101208DF8130016E0059890F82F003B
:101F9000C00720B1FFE701208DF81300FFE70BE039
:101FA0000598C06AB0F1C07F04D1FFE701208DF829
:101FB0001300FFE700E0FFE719E003980090032813
:101FC00004D3FFE70098032804D00EE001208DF829
:101FD00013000BE0059890F82F00C00720B1FFE731
:101FE00001208DF81300FFE700E0FFE7FFE7FFE7C0
:101FF0009DF8130006B070477047000081B0EFF302
:10200000108072B60090FFE7FEE7000080B584B054
:1020100003900291019200930098B0F5804F1DD17A
:10202000FFE70398019950F821000021CCF6F071E8
:102030000840029B1968D3F804E0D3F808C0DA68B6
:1020400041EA0E1141EA0C219B69194341EA024120
:1020500008430399019A41F8220006E00399019A86
:102060006FF0704041F82200FFE7002004B080BD0F
:1020700080B585B00490039104990398026851F8E3
:10208000220020F0010041F822000398806808280F
:1020900003D1FFE74020029002E000200290FFE71A
:1020A00002980399D1F804E0D1F808C0CB680A6916
:1020B00040EA0E0040EA0C00184310434A691043FE
:1020C000CA6910430A6A10434A6A10438A6A104375
:1020D000CA6A1043096B084301900398816901980B
:1020E000084301900398C16B0198084301904FF693
:1020F0007F30C0F208000090009840F480600090AB
:10210000009840F4E020009004980399096850F882
:10211000210000998843019908430499039A1268A1
:1021200041F82200002005B080BD000080B583B0DA
:102130000290019100920298009900EB81004068A2
:1021400000F04040019A1168D2F804E0D2F808C0CB
:10215000D36841EA0E1141EA0C2141EA0341D2F869
:1021600010C00023CFF6F07303EB0C5319435369EF
:10217000FE3341EA03619269114308430299009AD0
:1021800001EB82014860002003B080BD84B0029062
:102190000191029890F820008DF803009DF803004B
:1021A000012805D0FFE79DF8030002280AD1FFE7C8
:1021B000019A0298016848691043486100208DF82F
:1021C0000F0008E00299486A40F48020486201202C
:1021D0008DF80F00FFE79DF80F0004B07047000076
:1021E00086B004900391049800680190049890F8D8
:1021F00020008DF803009DF80300012806D0FFE7BA
:102200009DF80300022840F0B080FFE746F200404E
:10221000C4F2000001900199D1F8000240F00100E1
:10222000C1F800020199D1F8000220F47C50C1F8F5
:1022300000020398426A0199D1F8000240EA0220A4
:10224000C1F800020398406900F01F010120884096
:102250000290029A0199D1F81C029043C1F81C0225
:102260000398C069F0B9FFE7029A0199D1F80C020E
:102270009043C1F80C02039A9088D168526940EAF1
:102280000140019901EBC201C1F84002039A108894
:102290009168526940EA0140019901EBC201C1F81D
:1022A0004402FFE70398C06901281ED1FFE7029AA4
:1022B0000199D1F80C021043C1F80C02039A9088DE
:1022C0001168526940EA0140019901EBC201C1F86D
:1022D0004002039A90899168526940EA014001994D
:1022E00001EBC201C1F84402FFE70398806940B9DD
:1022F000FFE7029A0199D1F804029043C1F8040261
:1023000007E0029A0199D1F804021043C1F80402CF
:10231000FFE70398006940B9FFE7029A0199D1F8F5
:1023200014029043C1F8140207E0029A0199D1F80F
:1023300014021043C1F81402FFE70398006A012851
:1023400008D1FFE7029A0199D1F81C021043C1F8A5
:102350001C02FFE70199D1F8000220F00100C1F84A
:10236000000200208DF8170008E00499486A40F444
:102370008020486201208DF81700FFE79DF81700C4
:1023800006B0704781B0009001B0704786B00490ED
:10239000039102920193049890F820008DF80300B5
:1023A0009DF80300012806D0FFE79DF803000228EE
:1023B00040F0D780FFE7039880B9FFE704980068F2
:1023C000C068800748B9FFE70499486A40F40010E4
:1023D000486201208DF81700CCE00FE004980068F7
:1023E0000069800748B9FFE70499486A40F4001083
:1023F000486201208DF81700BCE0FFE704980068F0
:10240000039900EB0110D0F8B00100F0040002992C
:1024100088600298806858B9FFE7049800680399BB
:1024200000EB0110D0F8B001400D029908600AE0FD
:1024300004980068039900EB0110D0F8B001C008BF
:1024400002994860FFE704980068039900EB0110C7
:10245000D0F8B00100F002000299C860049800684A
:10246000039900EB0110D0F8B40100F00F000299BD
:10247000086104980068039900EB0110D0F8B401DA
:1024800080B2000A0299886104980068039900EB01
:102490000110D0F8B401000C02994861049800685A
:1024A000039900EB0110D0F8B80101990870049865
:1024B0000068039900EB0110D0F8B801000A0199F7
:1024C000487004980068039900EB0110D0F8B80137
:1024D000000C0199887004980068039900EB0110C2
:1024E000D0F8B801000E0199C870049800680399EB
:1024F00000EB0110D0F8BC01019908710498006844
:10250000039900EB0110D0F8BC01000A0199487151
:1025100004980068039900EB0110D0F8BC01000C8E
:102520000199887104980068039900EB0110D0F8B4
:10253000BC01000E0199C871039838B9FFE70498EF
:102540000168C86840F02000C86006E0049801688F
:10255000086940F020000861FFE700208DF81700AF
:1025600008E00499486A40F48020486201208DF810
:102570001700FFE79DF8170006B0704780B58AB0D6
:102580000990002008900998006840690790099810
:10259000006840680690099800688068059009986E
:1025A0000068C06804900998006800690390099861
:1025B0000068806902909DF81C00C007002800F0A8
:1025C0009480FFE79DF81400C00758B3FFE709980F
:1025D0000168012088609DF814008007002804D558
:1025E000FFE7099800F0B8FB1BE09DF814004007D6
:1025F000002805D5FFE7089840F4006008900FE038
:102600009DF814000007002805D5FFE7089840F45E
:102610008050089003E0099800F09AFBFFE7FFE77D
:10262000FFE7FFE79DF81500C00760B3FFE70998D3
:1026300001684FF4807088609DF8150080070028BD
:1026400004D5FFE7099800F08FFB1BE09DF815000B
:102650004007002805D5FFE7089840F4005008908F
:102660000FE09DF815000007002805D5FFE7089842
:1026700040F48040089003E0099800F071FBFFE708
:10268000FFE7FFE7FFE79DF81600C00760B3FFE72D
:10269000099801684FF4803088609DF81600800723
:1026A000002804D5FFE7099800F066FB1BE09DF8C1
:1026B00016004007002805D5FFE7089840F40040C1
:1026C00008900FE09DF816000007002805D5FFE7E9
:1026D000089840F48030089003E0099800F048FB27
:1026E000FFE7FFE7FFE7FFE7FFE79DF81C000007B4
:1026F000002810D5FFE79DF81000C006002809D576
:10270000FFE7089840F400700890099801681020CD
:10271000C860FFE7FFE79DF81C00400700280FD5C1
:10272000FFE79DF810000007002808D5FFE709988B
:1027300001680820C860099800F05EFAFFE7FFE72B
:102740009DF81C00800700280BD5FFE7099800685A
:10275000C068800720B1FFE7099800F051FAFFE751
:10276000FFE79DF81C004006002810D5FFE79DF804
:102770000C00C006002809D5FFE7089840F48060E7
:1027800008900998016810200861FFE7FFE79DF8AD
:102790001C00800600280FD5FFE79DF80C000007FD
:1027A000002808D5FFE70998016808200861099802
:1027B00000F07CFAFFE7FFE79DF81C00C006002848
:1027C0000BD5FFE7099800680069800720B1FFE793
:1027D000099800F06FFAFFE7FFE79DF81E008007F9
:1027E00000280FD5FFE79DF81800C006002808D57F
:1027F000FFE70998016810204860099800F05EFA28
:10280000FFE7FFE79DF81E00C00778B1FFE79DF8DE
:1028100018000007002808D5FFE70998016808207C
:102820004860099800F0ACFAFFE7FFE79DF81D004B
:102830000006002840F18D80FFE79DF81800400752
:10284000002840F18180FFE79DF81D00C00750B1CE
:10285000FFE79DF80800C00728B1FFE7089840F09F
:1028600001000890FFE79DF81D00800700280BD5A8
:10287000FFE79DF808008007002805D5FFE70898C6
:1028800040F002000890FFE79DF81D004007002877
:102890000BD5FFE79DF808004007002805D5FFE7A6
:1028A000089840F004000890FFE79DF81D0000071D
:1028B000002848D5FFE79DF8080010F0700F42D0BF
:1028C000FFE7029800F0700001460191102814D033
:1028D000FFE70198202815D0FFE70198302816D08F
:1028E000FFE70198402817D0FFE70198502818D03B
:1028F000FFE70198602819D01DE0089840F0080013
:10290000089019E0089840F01000089014E008982A
:1029100040F0200008900FE0089840F04000089038
:102920000AE0089840F08000089005E0089840F41C
:102930008070089000E0FFE709980168886920F03E
:1029400070008861FFE7FFE709980168042048608C
:10295000FFE7089848B1FFE7089A0999486A1043C9
:1029600048620998FFF70EFDFFE70AB080BD00003E
:1029700080B584B00290029820B9FFE701208DF85D
:102980000F00E0E0029890F8200020B9FFE70298DD
:1029900000F0DEF8FFE702980168086840F00100E7
:1029A000086000F093FF0190FFE70298006840681C
:1029B000C007A8B9FFE700F089FF0199401A0B286A
:1029C0000DD3FFE70299486A40F40030486202994B
:1029D000052081F8200001208DF80F00B3E0E4E726
:1029E00002980168086820F00200086000F06EFF9D
:1029F0000190FFE70298006840688007002815D51D
:102A0000FFE700F063FF0199401A0B280DD3FFE7A1
:102A10000299486A40F4003048620299052081F822
:102A2000200001208DF80F008DE0E3E70298007E82
:102A3000012807D1FFE702980168086840F080008C
:102A4000086006E002980168086820F080000860CD
:102A5000FFE70298407E012807D1FFE7029801684E
:102A6000086840F04000086006E0029801680868C5
:102A700020F040000860FFE70298807E012807D11F
:102A8000FFE702980168086840F02000086006E04F
:102A900002980168086820F020000860FFE70298AB
:102AA000C07E012807D1FFE702980168086820F07E
:102AB0001000086006E002980168086840F0100005
:102AC0000860FFE70298007F012807D1FFE702981E
:102AD0000168086840F00800086006E00298016894
:102AE000086820F008000860FFE70298407F01288E
:102AF00007D1FFE702980168086840F00400086009
:102B000006E002980168086820F004000860FFE70A
:102B1000029B19685A689868D3F80CC040EA0C0008
:102B2000D3F810C040EA0C005B691843013A104327
:102B3000C861029900204862029A012182F820109F
:102B40008DF80F00FFE79DF80F0004B080BD000076
:102B500080B58AB0099000200890079006900590F3
:102B600004900998006846F20041C4F200018842CE
:102B70003FD1FFE7FFE70020039043F64000C4F297
:102B80000200016841F000710160006800F000700F
:102B900003900398FFE7FFE70020029043F6300020
:102BA000C4F20200016841F002010160006800F017
:102BB000020002900298FFE74FF440700490022058
:102BC00005900020009006900320079009200890AF
:102BD00040F20040C4F2020004A900F083FC009A15
:102BE00014200190114600F009FF019800F0FCFE4E
:102BF000FFE70AB080BD000081B0009001B07047CF
:102C000080B584B00390039840F6D401C2F200016D
:102C1000884248D1FFE7039840F29052C2F2000286
:102C2000002101ABFFF7B2FB8DF803009DF8030014
:102C3000C0BBFFE748F27960C0F60500FDF7EAFB8C
:102C400040F29050C2F20000016848F26870C0F68D
:102C50000500FDF7DFFB9DF8041048F28170C0F617
:102C60000500FDF7D7FB9DF8051048F29570C0F6FA
:102C70000500FDF7CFFB9DF8061048F2A970C0F6DD
:102C80000500FDF7C7FB9DF8071048F2BD70C0F6C0
:102C90000500FDF7BFFB48F2E560C0F60500FDF753
:102CA000B9FBFFE7FFE704B080BD000081B00090F2
:102CB00001B0704781B0009001B0704781B00090C2
:102CC00001B0704780B584B00290029890F820005F
:102CD00001282FD1FFE70299022081F820000298F5
:102CE0000168086820F00100086000F0EFFD019025
:102CF000FFE7029800684068C007A8B1FFE700F04E
:102D0000E5FD0199401A0B280DD3FFE70299486AA7
:102D100040F4003048620299052081F8200001202B
:102D20008DF80F000FE0E4E70299002048628DF86B
:102D30000F0008E00299486A40F400204862012030
:102D40008DF80F00FFE79DF80F0004B080BD000074
:102D500081B0009001B0704781B0009001B0704721
:102D600081B0009001B0704781B0009001B0704711
:102D700081B0009001B0704781B0009001B0704701
:102D800081B0009001B0704780B582B0009000988B
:102D900020B9FFE701208DF8070011E00098407985
:102DA00038B9FFE7009900200871009800F00CF88E
:102DB000FFE700990120487100208DF80700FFE728
:102DC0009DF8070002B080BD82B0019001980068B4
:102DD00043F20001C4F20201884212D1FFE7FFE78B
:102DE0000020009043F63000C4F20200016841F474
:102DF00080510160006800F4805000900098FFE767
:102E0000FFE702B07047000080B584B002900298DE
:102E1000806D019000F05AFD0090029890F8350006
:102E200002280DD0FFE7029980204865FFE702994C
:102E3000002081F83400FFE701208DF80F0055E0F5
:102E400002980168086820F016000860029801687E
:102E5000486920F0800048610298006C20B9FFE7C3
:102E60000298806C38B1FFE702980168086820F08A
:102E700008000860FFE702980168086820F0010078
:102E80000860FFE7029800680068C007C8B1FFE764
:102E900000F01CFD0099401A062811D3FFE70299A3
:102EA000202048650299032081F83500FFE7029948
:102EB000002081F83400FFE703208DF80F0015E0B3
:102EC000E0E70298C16D3F2088400199886002992F
:102ED000012081F83500FFE70299002081F83400D5
:102EE000FFE7FFE700208DF80F00FFE79DF80F00D8
:102EF00004B080BD82B00090009890F835000228A0
:102F000007D0FFE700998020486501208DF8070071
:102F10000EE00099052081F83500009801680868E6
:102F200020F001000860FFE700208DF80700FFE7B0
:102F30009DF8070002B0704780B586B0059000206C
:102F4000039040F20C00C2F20000006848F2B51194
:102F5000C1F64E31A0FB0110800A02900598806DE9
:102F6000019001980068049004980599C96DC840C3
:102F7000000700281AD5FFE7059800680068400799
:102F8000002812D5FFE705980168086820F00400C2
:102F900008600598C16D08208840019988600599EE
:102FA000486D40F001004865FFE7FFE70498059988
:102FB000C96DC840C007A0B1FFE705980068406927
:102FC000000600280CD5FFE70598C16D0120884058
:102FD000019988600599486D40F002004865FFE757
:102FE000FFE704980599C96DC8404007002814D52B
:102FF000FFE7059800680068800700280CD5FFE708
:103000000598C16D04208840019988600599486D34
:1030100040F004004865FFE7FFE704980599C96D93
:10302000C840C006002847D5FFE70598006800683B
:10303000000700283FD5FFE70598C16D10208840A4
:1030400001998860059800680068400300281AD537
:10305000FFE70598006800680003002809D4FFE72F
:103060000598006C20B1FFE70598016C8847FFE7E1
:1030700008E00598806C20B1FFE70598816C8847CF
:10308000FFE7FFE716E0059800680068C005002824
:1030900007D4FFE705980168086820F00800086079
:1030A000FFE70598006C20B1FFE70598016C8847A1
:1030B000FFE7FFE7FFE7FFE704980599C96DC84000
:1030C0008006002840F18D80FFE7059800680068C1
:1030D000C006002840F18480FFE70598C16D2020DC
:1030E000884001998860059890F83500052834D10A
:1030F000FFE705980168086820F016000860059849
:103100000168486920F0800048610598006C20B98A
:10311000FFE70598806C38B1FFE7059801680868FB
:1031200020F008000860FFE70598C16D3F20884047
:10313000019988600599012081F83500FFE705991C
:10314000002081F83400FFE70598006D20B1FFE70B
:103150000598016D8847FFE77BE0059800680068E7
:10316000400300281AD5FFE70598006800680003AF
:10317000002809D4FFE70598406C20B1FFE70598C7
:10318000416C8847FFE708E00598C06B20B1FFE776
:103190000598C16B8847FFE7FFE720E005980068C6
:1031A0000068C005002811D4FFE705980168086889
:1031B00020F0100008600599012081F83500FFE734
:1031C0000599002081F83400FFE7FFE70598C06B00
:1031D00020B1FFE70598C16B8847FFE7FFE7FFE7EE
:1031E000FFE70598406DA0B3FFE70598406DC00765
:1031F00030B3FFE70599052081F83500059801688F
:10320000086820F001000860FFE703980130039090
:103210000299884201D9FFE707E0FFE705980068B7
:103220000068C0070028F0D1FFE70599012081F868
:103230003500FFE70599002081F83400FFE7FFE73C
:103240000598C06C20B1FFE70598C16C8847FFE77F
:10325000FFE706B080BD000080B586B00490002076
:10326000039000F033FB0290049820B9FFE701209F
:103270008DF81700A3E00498406A08B1FFE7FFE764
:103280000499022081F83500FFE70499002081F8B5
:103290003400FFE704980168086820F00100086026
:1032A000FFE7049800680068C00790B1FFE700F0EE
:1032B0000DFB0299401A06280AD3FFE70499202043
:1032C00048650499032081F835008DF8170076E0F1
:1032D000E7E70498006800680390039848F23F010C
:1032E000CFF2100108400390049900914868D1F88A
:1032F00008C0CB680A6940EA0C00184310434A69C9
:1033000010438A691043CA691043096A014303984C
:10331000084303900498406A042808D1FFE7049901
:10332000C86A096B0143039808430390FFE70398B9
:10333000049909680860049800684069039003983C
:1033400020F0070003900498416A03980843039013
:103350000498406A04281AD1FFE70498816A039808
:10336000084303900498C06A80B1FFE70498FEF711
:10337000CBFD50B1FFE70499402048650499012036
:1033800081F835008DF8170019E0FFE7FFE7039893
:103390000499096848610498FEF78AFD0190049831
:1033A000C16D3F20884001998860049900204865DC
:1033B000049A012182F835108DF81700FFE79DF877
:1033C000170006B080BD000080B584B0039000F007
:1033D0007DFA0290039801900198013048B1FFE70F
:1033E00040F2F500C2F20000017801980844019013
:1033F000FFE7FFE700F06AFA0299401A0199884254
:1034000001D2FFE7F6E704B080BD000080B58CB0C4
:1034100000200B900A9009900890079040F26430C9
:10342000C2F20000006808B1FFE758E040F26431E2
:10343000C2F2000101200860FFE70020069043F679
:103440003800C4F20200016841F001010160006827
:1034500000F0010006900698FFE74FF6887007908D
:103460000220019008900020029009900320039010
:103470000A900C2004900B9041F20000C4F202006C
:1034800007A9059100F02EF8DDF804C0029B039A0D
:10349000049805994CF2337ECDF81CE0CDF820C09D
:1034A00009930A920B9040F60040C4F2020000F02B
:1034B00019F8DDF804C0029B039A049805994FF4AB
:1034C000007ECDF81CE0CDF820C009930A920B9045
:1034D00041F60000C4F2020000F004F8FFE70CB06F
:1034E00080BD00008EB00D900C9100200A900990D4
:1034F00008900B90FFE70B980F2800F2CC81FFE7B4
:103500000B99012088400A900C9800680A9908409D
:10351000099009980A99884240F0B881FFE70C9811
:10352000406800F00300012807D0FFE70C984068CE
:1035300000F0030002282FD1FFE70D988068089063
:103540000B984100032000FA01F108988843089085
:103550000C98C0680B99490000FA01F108980843DB
:10356000089008980D9988600D98406808900B990C
:10357000012000FA01F10898884308900C984068EF
:10358000C0F300100B9900FA01F108980843089065
:1035900008980D994860FFE70C98406800F0030018
:1035A000032818D0FFE70D98C06808900B984100D9
:1035B000032000FA01F10898884308900C9880686D
:1035C0000B99490000FA01F10898084308900898FF
:1035D0000D99C860FFE70C98406800F003000228CE
:1035E00026D1FFE70D980B996FF0030202EA510113
:1035F0000844006A08900B9800F0070081000F2033
:1036000000FA01F10898884308900C9800690B991A
:1036100001F00701890000FA01F1089808430890B9
:1036200008980D990B9B02EA530211440862FFE7C8
:103630000D98006808900B984100032000FA01F1F2
:103640000898884308900C98406800F003000B9994
:10365000490000FA01F108980843089008980D996C
:1036600008600C9880798007002800F00E81FFE741
:10367000FFE70020079043F64400C4F2020001680F
:1036800041F480410160006800F480400790079891
:10369000FFE70B9820F0030043F60801C4F2010194
:1036A000405808900B9800F0030081000F2000FAAA
:1036B00001F10898884308900D980021C4F2020196
:1036C000884203D1FFE7002006905EE00D9840F2AB
:1036D0000041C4F20201884203D1FFE701200590B6
:1036E00050E00D9840F60001C4F20201884203D177
:1036F000FFE70220049042E00D9840F60041C4F23A
:103700000201884203D1FFE70320039034E00D98C3
:1037100041F20001C4F20201884203D1FFE7042014
:10372000029026E00D9841F20041C4F20201884265
:1037300003D1FFE70520019018E00D9841F6000144
:10374000C4F20201884203D1FFE7062000900AE09C
:103750000D9941F60042C4F202020820914208BFCE
:1037600007200090FFE700980190FFE70198029082
:10377000FFE702980390FFE703980490FFE704989F
:103780000590FFE705980690FFE70698C0B20B99F1
:1037900001F00301890000FA01F10898084308903C
:1037A00008980B9921F0030143F60802C4F20102C4
:1037B000885043F60840C4F2010000680890099957
:1037C0000898884308900C988079C006002805D591
:1037D000FFE70999089808430890FFE7089843F61F
:1037E0000841C4F20101086043F60C40C4F2010034
:1037F0000068089009990898884308900C98807987
:103800008006002805D5FFE7099908980843089025
:10381000FFE7089843F60C41C4F20101086043F643
:103820000440C4F201000068089009990898884390
:1038300008900C9880798007002805D5FFE7099942
:10384000089808430890FFE7089843F60441C4F23B
:103850000101086043F60040C4F2010000680890CE
:1038600009990898884308900C988079C00728B176
:10387000FFE70999089808430890FFE7089843F67E
:103880000041C4F201010860FFE7FFE7FFE70B9882
:1038900001300B902FE60EB07047000082B001900F
:1038A000ADF802108DF801209DF8010028B1FFE766
:1038B000BDF802000199886105E0BDF8020000042E
:1038C00001998861FFE702B0704700004FF2C820FD
:1038D000C2F200000068704740F2F500C2F200003A
:1038E00002784FF2C821C2F2000108681044086053
:1038F0007047000080B543F60041C4F20201086839
:1039000040F400700860086840F48060086008684F
:1039100040F480700860032000F08AF80F2000F067
:1039200005F800F03BF8002080BD000080B582B0B3
:10393000009040F20C00C2F20000006840F2F50175
:10394000C2F200010A784FF47A71B1FBF2F1B0FBD8
:10395000F1F000F0B7FE20B1FFE701208DF807007D
:1039600018E000980F280DD8FFE700994FF0FF30BE
:10397000002200F043F8009840F2F801C2F2000182
:10398000086003E001208DF8070003E000208DF8B7
:103990000700FFE79DF8070002B080BD82B0FFE797
:1039A0000020019043F64400C4F20200016841F493
:1039B00080410160006800F4804001900198FFE7B9
:1039C000FFE70020009043F64000C4F202000168C7
:1039D00041F080510160006800F080500090009834
:1039E000FFE702B07047000080B582B08DF8070095
:1039F0009DF9070003F034FD02B080BD80B586B0AC
:103A00008DF81700049103920020029003F040FD0E
:103A100002909DF91700019002980499039A02F010
:103A200063FE0146019803F03BFD06B080BD000037
:103A300080B582B00190019803F054FD02B080BDC2
:103A400080B584B002900191029820B9FFE701206F
:103A50008DF80F0021E1019843F60041C4F2020104
:103A6000096801F00701884212D9FFE7019943F67E
:103A70000040C4F202000170006800F007000199E4
:103A8000884204D0FFE701208DF80F0005E1FFE731
:103A900002980078800700282AD5FFE7029800786E
:103AA0004007002809D5FFE743F60801C4F20201E8
:103AB000086840F4E0500860FFE7029800780007CB
:103AC000002809D5FFE743F60801C4F2020108689F
:103AD00040F460400860FFE743F60801C4F20201C9
:103AE000086820F0F000029A926810430860FFE72F
:103AF00002980078C00700286ED0FFE7029840685F
:103B0000012811D1FFE743F60000C4F2020000686B
:103B100000F400310020B0EB514F04D1FFE7012049
:103B20008DF80F00B9E02CE002984068022805D01B
:103B3000FFE702984068032811D1FFE743F6000031
:103B4000C4F20200006800F000710020B0EB516F79
:103B500004D1FFE701208DF80F009EE010E043F64E
:103B60000000C4F20200006800F002010020B0EB87
:103B7000510F04D1FFE701208DF80F008DE0FFE722
:103B8000FFE743F60801C4F20201086820F00300D1
:103B9000029A526810430860FFF798FE0090FFE712
:103BA00043F60800C4F20200006800F00C0002991D
:103BB0004968B0EB810F0ED0FFE7FFF787FE009951
:103BC000401A41F28931884204D3FFE703208DF87F
:103BD0000F0062E0E4E7FFE7019843F60041C4F21A
:103BE0000201096801F00701884212D2FFE701993A
:103BF00043F60040C4F202000170006800F00700C4
:103C00000199884204D0FFE701208DF80F0044E0BD
:103C1000FFE702980078400700280CD5FFE743F63D
:103C20000801C4F20201086820F4E050029AD26848
:103C300010430860FFE702980078000700280DD5C0
:103C4000FFE743F60801C4F20201086820F460406F
:103C5000029A126940EAC2000860FFE700F04CF8DF
:103C600043F60801C4F202010968C9B20A094BF619
:103C70002451C0F60401895CC84040F20C01C2F234
:103C80000001086040F2F800C2F200000068FFF78F
:103C90004DFE00208DF80F00FFE79DF80F0004B0E7
:103CA00080BD000040F20C00C2F2000000687047C6
:103CB00080B5FFF7F7FF43F60801C4F20201096877
:103CC000C1F382224BF63451C0F60401895CC8402E
:103CD00080BD000080B5FFF7E5FF43F60801C4F2A0
:103CE0000201096889B24A0B4BF63451C0F604014F
:103CF000895CC84080BD000080B586B0002005907A
:103D000004900390029043F60800C4F20200006899
:103D100000F00C000146019140B1FFE70198042832
:103D20000AD0FFE7019808280CD04FE042F200408B
:103D3000C0F2F40002904FE041F20020C0F27A009D
:103D4000029049E043F60400C4F20200016801F069
:103D50003F01059100684002002813D5FFE743F6B4
:103D60000400C4F202000068C0F3881041F2002190
:103D7000C0F27A01A0FB0101059A0023FCF7D2FAF8
:103D8000049012E043F60400C4F202000068C0F39D
:103D9000881042F20041C0F2F401A0FB0101059A33
:103DA0000023FCF7BFFA0490FFE743F60400C4F2D7
:103DB0000200006800F44031022000EBD130039093
:103DC00004980399B0FBF1F0029005E042F2004044
:103DD000C0F2F4000290FFE7029806B080BD000038
:103DE00080B586B00490049820B9FFE701208DF8D3
:103DF000170050E304980078C007002800F0A58061
:103E0000FFE743F60800C4F20200006800F00C006F
:103E1000042813D0FFE743F60800C4F2020000684C
:103E200000F00C0008281ED1FFE743F60400C4F29E
:103E3000020000684002002815D5FFE743F60000A5
:103E4000C4F20200006800F400310020B0EB514FD2
:103E500008D0FFE70498406820B9FFE701208DF8FB
:103E6000170018E370E0FFE704984068B0F5803F62
:103E700009D1FFE743F60001C4F20201086840F4EB
:103E80008030086020E004984068B0F5A02F0DD184
:103E9000FFE743F60001C4F20201086840F4802005
:103EA0000860086840F4803008600CE043F60001C8
:103EB000C4F20201086820F480300860086820F429
:103EC00080200860FFE7FFE7FFE704984068E8B15B
:103ED000FFE7FFF7FBFC0390FFE743F60000C4F2A7
:103EE0000200006800F400310020B0EB514F0CD10B
:103EF000FFE7FFF7EBFC0399401A652804D3FFE7BF
:103F000003208DF81700C6E2E7E71CE0FFF7DEFCB0
:103F10000390FFE743F60000C4F20200006800F4DB
:103F200000310020B0EB514F0CD0FFE7FFF7CEFC83
:103F30000399401A652804D3FFE703208DF8170082
:103F4000A9E2E7E7FFE7FFE7FFE7049800788007CB
:103F5000002840F19680FFE743F60800C4F2020013
:103F6000006810F00C0F13D0FFE743F60800C4F20E
:103F70000200006800F00C0008282CD1FFE743F68F
:103F80000400C4F2020000684002002823D4FFE7C6
:103F900043F60000C4F20200006800F002010020B5
:103FA000B0EB510F09D0FFE70498C068012804D096
:103FB000FFE701208DF817006DE243F60001C4F21F
:103FC0000201086820F0F800049A126940EAC20071
:103FD0000860FFE754E00498C06870B3FFE7002171
:103FE000C4F2472101200860FFF770FC0390FFE74F
:103FF00043F60000C4F20200006800F00201002055
:10400000B0EB510F0CD1FFE7FFF760FC0399401AAA
:10401000032804D3FFE703208DF817003BE2E7E70E
:1040200043F60001C4F20201086820F0F800049A87
:10403000126940EAC200086021E00021C4F2472171
:1040400000200860FFF742FC0390FFE743F6000002
:10405000C4F20200006800F002010020B0EB510F32
:104060000CD0FFE7FFF732FC0399401A032804D372
:10407000FFE703208DF817000DE2E7E7FFE7FFE712
:10408000FFE704980078000700284BD5FFE7049865
:10409000406918B3FFE740F68061C4F24721012070
:1040A0000860FFF713FC0390FFE743F67400C4F2C7
:1040B0000200006800F002010020B0EB510F0CD1AB
:1040C000FFE7FFF703FC0399401A032804D3FFE737
:1040D00003208DF81700DEE1E7E722E040F680617B
:1040E000C4F2472100200860FFF7F0FB0390FFE7D0
:1040F00043F67400C4F20200006800F002010020E0
:10410000B0EB510F0CD0FFE7FFF7E0FB0399401A2B
:10411000032804D3FFE703208DF81700BBE1E7E78E
:10412000FFE7FFE7049800784007002840F1CE80C1
:10413000FFE700208DF8070043F64000C4F20200BC
:104140000068C000002815D4FFE7FFE700200090BA
:1041500043F64000C4F20200016841F08051016062
:10416000006800F0805000900098FFE701208DF873
:104170000700FFE747F20000C4F200000068C00536
:10418000002822D4FFE747F20001C4F200010868CA
:1041900040F480700860FFF799FB0390FFE747F257
:1041A0000000C4F200000068C00500280CD4FFE73E
:1041B000FFF78CFB0399401A032804D3FFE7032081
:1041C0008DF8170067E1EAE7FFE7FFE704988068EA
:1041D000012809D1FFE743F67001C4F20201086823
:1041E00040F0010008601FE00498806805280DD1A8
:1041F000FFE743F67001C4F20201086840F00400D2
:104200000860086840F0010008600CE043F67001A7
:10421000C4F20201086820F001000860086820F07C
:1042200004000860FFE7FFE7FFE704988068F8B143
:10423000FFE7FFF74BFB0390FFE743F67000C4F284
:104240000200006800F002010020B0EB510F0ED117
:10425000FFE7FFF73BFB0399401A41F2893188429F
:1042600004D3FFE703208DF8170014E1E5E71EE013
:10427000FFF72CFB0390FFE743F67000C4F2020047
:10428000006800F002010020B0EB510F0ED0FFE7F4
:10429000FFF71CFB0399401A41F28931884204D38D
:1042A000FFE703208DF81700F5E0E5E7FFE79DF84D
:1042B0000700012809D1FFE743F64001C4F20201DB
:1042C000086820F080500860FFE7FFE704988069E5
:1042D000002800F0DC80FFE743F60800C4F202008B
:1042E000006800F00C00082800F08580FFE70498C3
:1042F000806902285CD1FFE76021C4F247210020D9
:104300000860FFF7E3FA0390FFE743F60000C4F20A
:104310000200006800F000710020B0EB516F0CD07B
:10432000FFE7FFF7D3FA0399401A032804D3FFE706
:1043300003208DF81700AEE0E7E70499C869D1F8CB
:1043400020C04B6A8A6A40EA0C0040EA8310D2031C
:104350004FF6FF739A43A2F580321043C96A40EAD0
:10436000016043F60401C4F2020108606021C4F256
:10437000472101200860FFF7A9FA0390FFE743F601
:104380000000C4F20200006800F000710020B0EBF1
:10439000516F0CD1FFE7FFF799FA0399401A0328F0
:1043A00004D3FFE703208DF8170074E0E7E721E06E
:1043B0006021C4F2472100200860FFF787FA0390CC
:1043C000FFE743F60000C4F20200006800F000714D
:1043D0000020B0EB516F0CD0FFE7FFF777FA03999D
:1043E000401A032804D3FFE703208DF8170052E09A
:1043F000E7E7FFE74AE004988069012804D1FFE776
:1044000001208DF8170046E043F60400C4F20200D4
:104410000068029004988069012831D0FFE7029873
:1044200000F480000499C969884229D1FFE7029805
:1044300000F03F000499096A884221D1FFE7029801
:1044400047F6C07108400499496AB0EB811F17D143
:10445000FFE7029800F440300499896AC9034FF6D7
:10446000FF729143A1F58031884209D1FFE702989C
:1044700000F070600499C96AB0EB016F04D0FFE7E7
:1044800001208DF8170006E0FFE7FFE7FFE70020B7
:104490008DF81700FFE79DF8170006B080BD0000FB
:1044A00080B584B00290029820B9FFE701208DF812
:1044B0000F0071E00298406A60B9FFE70298406817
:1044C000B0F5827F01D1FFE703E002990020C861C7
:1044D000FFE705E002990020086102994861FFE7C3
:1044E000029900208862029890F8510040B9FFE7D5
:1044F0000299002081F85000029800F051F8FFE77F
:104500000299022081F8510002980168086820F0A1
:1045100040000860029A019211685068D2F808C001
:10452000D36800F482700CF4044C604403F400631C
:104530001844136903F002031844536903F001039C
:104540001844936903F400731844D36903F03803E3
:104550001844136A03F080031843926A02F400526D
:1045600010430860029A508B00F004001168526AF0
:1045700002F010021044486002980168C86920F4F3
:104580000060C861029900204865029A012182F802
:1045900051108DF80F00FFE79DF80F0004B080BDAB
:1045A00080B588B007900020069005900490039095
:1045B00002900798006843F60041C4F20001884267
:1045C00035D1FFE7FFE70020019043F64000C4F239
:1045D0000200016841F400410160006800F40040FD
:1045E00001900198FFE7FFE70020009043F63000BC
:1045F000C4F20200016841F004010160006800F0AB
:10460000040000900098FFE74FF4E0500290022071
:10461000039000200490032005900620069040F6A9
:104620000000C4F2020002A9FEF75CFFFFE708B039
:1046300080BD000080B584B0029001910092029884
:1046400020B9FFE701208DF80F002FE0029890F8C5
:10465000490040B9FFE70299002081F8480002981C
:1046600000F028F8FFE7029951F8080BFDF700FD6C
:10467000029A019910689268FDF758FD029B009913
:1046800058689A681B6BFDF7C1FC02980168826844
:1046900051F8220040F0010041F822000299012067
:1046A00081F8490000208DF80F00FFE79DF80F000A
:1046B00004B080BD80B582B00190FEF7A7FE02B0C5
:1046C00080BD000080B582B00190019802F046F8EC
:1046D00002B080BD81B0009001B0704781B0009001
:1046E00001B0704784B00290019100200090FFE774
:1046F000029890F83C00012804D1FFE702208DF8D1
:104700000F0044E00299012081F83C00FFE7FFE739
:10471000009820F0FF000199C968084300900098B4
:1047200020F440700199896808430090009820F4B3
:1047300080600199496808430090009820F4006067
:104740000199096808430090009820F4805001996D
:10475000096908430090009820F4005001994969C4
:1047600008430090009820F480400199C9690843EB
:1047700000900098029909684864FFE702990020B8
:1047800081F83C00FFE700208DF80F00FFE79DF85F
:104790000F0004B07047000085B003900291FFE75E
:1047A000039890F83C00012804D1FFE702208DF81F
:1047B00013007EE00399012081F83C00FFE7FFE74A
:1047C0000399022081F83D00039800684068019039
:1047D0000398006880680090019820F070000190B4
:1047E00002980168019808430190019803990968AB
:1047F0004860039800680021C4F2010188423CD05F
:10480000FFE703980068B0F1804F36D0FFE70398C8
:10481000006840F20041C4F2000188422DD0FFE759
:104820000398006840F60001C4F20001884224D0D9
:10483000FFE70398006840F60041C4F20001884297
:104840001BD0FFE70398006840F20041C4F2010169
:10485000884212D0FFE70398006844F20001C4F2D6
:104860000101884209D0FFE70398006841F6000182
:10487000C4F2000188420ED1FFE7009820F08000CA
:1048800000900298416800980843009000980399AE
:1048900009688860FFE70399012081F83D00FFE780
:1048A0000399002081F83C00FFE700208DF81300F9
:1048B000FFE79DF8130005B07047000080B582B097
:1048C0000090009820B9FFE701208DF807003FE035
:1048D000009890F83D0040B9FFE70099002081F86A
:1048E0003C00009800F038F8FFE70099022081F8BA
:1048F0003D00009951F8040B01F0CEFF0099012012
:1049000081F84600FFE70099012081F83E000099F8
:1049100081F83F00009981F84000009981F841003A
:10492000FFE7FFE70099012081F84200009981F834
:104930004300009981F84400009981F84500FFE7A1
:104940000099012081F83D0000208DF80700FFE765
:104950009DF8070002B080BD80B586B0059005982F
:1049600000680021C4F20101884240D1FFE7FFE75F
:104970000020049043F64400C4F20200016841F0B4
:1049800001010160006800F0010004900498FFE755
:1049900040F60410C2F20000029046F22841C4F230
:1049A000020101604FF040614160402181600021BF
:1049B000C1604FF4806202614FF4006242614FF4C3
:1049C00000528261C16101624162FEF745FC18B18B
:1049D000FFE7FDF713FBFFE7FFE7059840F604113B
:1049E000C2F20001416205988863FFE724E0059860
:1049F000006840F20041C4F2000188421BD1FFE789
:104A0000FFE70020039043F64000C4F20200016873
:104A100041F002010160006800F002000390039879
:104A2000FFE71D20019000221146FEF7E7FF0198E5
:104A3000FEF7DAFFFFE7FFE706B080BD83B0019025
:104A4000019890F83D00012804D0FFE701208DF87F
:104A50000B006AE00199022081F83D00019801688D
:104A6000C86840F00100C860019800680021C4F2E5
:104A7000010188423CD0FFE701980068B0F1804F07
:104A800036D0FFE70198006840F20041C4F200010F
:104A900088422DD0FFE70198006840F60001C4F27B
:104AA0000001884224D0FFE70198006840F60041E9
:104AB000C4F2000188421BD0FFE70198006840F271
:104AC0000041C4F20101884212D0FFE7019800685A
:104AD00044F20001C4F20101884209D0FFE70198C5
:104AE000006841F60001C4F20001884212D1FFE7DC
:104AF00001980068806800F0070000900098062880
:104B000007D0FFE701980168086840F001000860DD
:104B1000FFE706E001980168086840F001000860BE
:104B2000FFE700208DF80B00FFE79DF80B0003B0B6
:104B30007047000080B586B00490039100208DF886
:104B40000B00FFE7049890F83C00012804D1FFE730
:104B500002208DF81700ABE00499012081F83C0099
:104B6000FFE7FFE70499022081F83D000498006800
:104B700080680190019820F077000190019820F45E
:104B80007F40019001980499096888600398006843
:104B90000090002872D0FFE7009810286ED0FFE741
:104BA000009820286AD0FFE70098302866D0FFE7F9
:104BB0000098402855D0FFE70098502837D0FFE7ED
:104BC0000098602840D0FFE7009870280BD0FFE7DE
:104BD0000098B0F5805F05D0FFE70098B0F5005F62
:104BE00016D052E055E004980068039B5A68996813
:104BF000DB6801F03BFF0498006880680190019831
:104C000040F077000190019804990968886040E0BD
:104C100004980068039B5A689968DB6801F026FFD6
:104C200004980168886840F48040886031E0049806
:104C30000068039A5168D26802F004F90498006889
:104C4000502101F02DFF24E004980068039A516878
:104C5000D26802F01FF904980068602101F020FF7B
:104C600017E004980068039A5168D26802F0EAF8E5
:104C700004980068402101F013FF0AE004980068DE
:104C80000399096801F00CFF03E001208DF80B0087
:104C9000FFE70499012081F83D00FFE70499002017
:104CA00081F83C00FFE79DF80B008DF81700FFE747
:104CB0009DF8170006B080BD81B0009001B070472C
:104CC00080B582B0019001980068006900F002018F
:104CD0000020B0EB510F28D0FFE701980068C068B2
:104CE00000F002010020B0EB510F1DD0FFE701984A
:104CF00001686FF0020008610199012008770198AE
:104D000000688069800720B1FFE70198FFF7D4FFB2
:104D100006E0019800F048F9019800F03DFAFFE73D
:104D2000019900200877FFE7FFE701980068006914
:104D300000F004010020B0EB910F29D0FFE70198AB
:104D40000068C06800F004010020B0EB910F1ED095
:104D5000FFE7019801686FF00400086101990220E3
:104D6000087701980068806910F4407F04D0FFE75D
:104D70000198FFF7A1FF06E0019800F015F90198EE
:104D800000F00AFAFFE7019900200877FFE7FFE744
:104D900001980068006900F008010020B0EBD10F15
:104DA00028D0FFE701980068C06800F008010020E3
:104DB000B0EBD10F1DD0FFE7019801686FF008003C
:104DC000086101990420087701980068C06980078C
:104DD00020B1FFE70198FFF76FFF06E0019800F0B0
:104DE000E3F8019800F0D8F9FFE70199002008776F
:104DF000FFE7FFE701980068006900F0100100205C
:104E0000B0EB111F29D0FFE701980068C06800F0DF
:104E100010010020B0EB111F1ED0FFE701980168C0
:104E20006FF0100008610199082008770198006868
:104E3000C06910F4407F04D0FFE70198FFF73CFF02
:104E400006E0019800F0B0F8019800F0A5F9FFE73E
:104E5000019900200877FFE7FFE7019800680069E3
:104E6000C00780B1FFE701980068C068C00748B17B
:104E7000FFE7019801686FF001000861019800F0F8
:104E800065FAFFE7FFE7019800680069C1B20020FA
:104E9000B0EBD11F13D0FFE701980068C068C1B222
:104EA0000020B0EBD11F09D0FFE7019801686FF037
:104EB000800008610198FFF70DFCFFE7FFE701980C
:104EC0000068006900F040010020B0EB911F14D091
:104ED000FFE701980068C06800F040010020B0EBD7
:104EE000911F09D0FFE7019801686FF04000086149
:104EF000019800F03DFAFFE7FFE7019800680069BC
:104F000000F020010020B0EB511F14D0FFE7019802
:104F10000068C06800F020010020B0EB511F09D0EC
:104F2000FFE7019801686FF0200008610198FFF722
:104F3000D5FBFFE7FFE702B080BD000080B588B079
:104F40000790002006900590049003900290079827
:104F500000680021C4F20101884222D1FFE7FFE787
:104F60000020019043F63000C4F20200016841F0D5
:104F700001010160006800F0010001900198FFE765
:104F80004FF480700290022003900020049005905E
:104F9000012006900020C4F2020002A9FEF7A2FA46
:104FA000FFE708B080BD000081B0009001B07047FD
:104FB00080B586B004900391029200208DF807001E
:104FC000FFE7049890F83C00012804D1FFE7022095
:104FD0008DF8170089E00499012081F83C00FFE773
:104FE000FFE7029800900C2800F270800099DFE83B
:104FF00001F0076D6D6D206D6D6D3A6D6D6D530037
:1050000004980068039901F061FD049801688869BB
:1050100040F00800886104980168886920F0040065
:10502000886103980269049801688869104388615F
:1050300050E004980068039901F0BEFD04980168EF
:10504000886940F40060886104980168886920F4E8
:10505000806088610398026904980168886940EA61
:105060000220886136E004980068039901F01EFE72
:1050700004980168C86940F00800C8610498016894
:10508000C86920F00400C8610398026904980168A7
:10509000C8691043C8611DE004980068039901F0D5
:1050A0007FFE04980168C86940F40060C8610498F4
:1050B0000168C86920F48060C86103980269049897
:1050C0000168C86940EA0220C86103E001208DF848
:1050D0000700FFE7FFE70499002081F83C00FFE7A5
:1050E0009DF807008DF81700FFE79DF8170006B040
:1050F00080BD000080B582B00090009820B9FFE725
:1051000001208DF807003FE0009890F83D0040B97D
:10511000FFE70099002081F83C00009800F038F883
:10512000FFE70099022081F83D00009951F8040B37
:1051300001F0B2FB0099012081F84600FFE70099D9
:10514000012081F83E00009981F83F00009981F824
:105150004000009981F84100FFE7FFE70099012036
:1051600081F84200009981F84300009981F84400D9
:10517000009981F84500FFE70099012081F83D0082
:1051800000208DF80700FFE79DF8070002B080BD02
:1051900081B0009001B0704780B582B0019040F6B8
:1051A0000C20C2F2000002680021516300F002F8F6
:1051B00002B080BD80B588B00790069100208DF8C0
:1051C0001700069804900C2835D80499DFE801F000
:1051D00007333333123333331D3333332800079807
:1051E0000168C86820F40070C8600798406AFDF73D
:1051F00081FE24E007980168C86820F48060C860D8
:105200000798806AFDF776FE19E007980168C8687C
:1052100020F40060C8600798C06AFDF76BFE0EE0DE
:1052200007980168C86820F48050C8600798006B30
:10523000FDF760FE03E001208DF81700FFE79DF801
:10524000170000287DD1FFE7079800680699002223
:1052500001F0F0FB0798016801200022C4F201026E
:10526000914203900CD0FFE7079800684FF6004189
:10527000CBF6FE710844B0FA80F040090390FFE7D6
:105280000398C007D8B1FFE7FFE707980068006AF6
:1052900041F21111084210D1FFE707980068006A37
:1052A00040F24441084207D1FFE707980168486C83
:1052B00020F400404864FFE7FFE7FFE7FFE7FFE770
:1052C00007980068006A41F21111084210D1FFE707
:1052D00007980068006A40F24441084207D1FFE79E
:1052E00007980168086820F001000860FFE7FFE701
:1052F000FFE7069828B9FFE70799012081F83E00EB
:105300001EE00698042806D1FFE70799012081F8DE
:105310003F00029012E00698082806D1FFE707999F
:10532000012081F84000019005E00799012081F8F3
:1053300041000190FFE701980290FFE70298FFE724
:10534000FFE79DF8170008B080BD000080B582B06F
:105350000190019840F65421C2F20001884204D124
:10536000FFE701203BF04EFAFFE702B080BD0000EE
:1053700081B0009001B0704782B00190ADF802108A
:1053800002B0704781B0009001B0704783B00290C6
:10539000002001900090029890F83D000190029842
:1053A00090F83E0000909DF804009DF8001008431E
:1053B00003B0704780B592B01190119800680068F2
:1053C000109011980068C0680F90119800684069AB
:1053D0000E9000200D900C90109800F00F000D9092
:1053E0000D9888B9FFE79DF84000800600280AD58F
:1053F000FFE79DF83C008006002804D5FFE71198E0
:1054000001F0E0FDE3E1FFE70D98002800F0C28025
:10541000FFE79DF83800C00738B9FFE7BDF83C004A
:1054200010F4907F00F0B680FFE79DF84000C007C1
:1054300058B1FFE79DF83D00C00730B1FFE7119973
:10544000086C40F001000864FFE79DF84000400749
:1054500000280BD5FFE79DF83800C00730B1FFE703
:105460001199086C40F002000864FFE79DF84000C5
:10547000800700280BD5FFE79DF83800C00730B142
:10548000FFE71199086C40F004000864FFE79DF8FD
:1054900040000007002811D5FFE79DF83C0080067A
:1054A000002805D4FFE79DF83800C00730B1FFE7BA
:1054B0001199086C40F008000864FFE71198006C2F
:1054C000002866D0FFE79DF84000800600280AD536
:1054D000FFE79DF83C008006002804D5FFE71198FF
:1054E00001F070FDFFE7119800684069C0F380107B
:1054F0000C901198006C0007002804D4FFE70C986A
:1055000000283ED0FFE7119801F0FEFC11980068DA
:105510004069400600282FD5FFE7FFE7FFE7119815
:10552000006850E8050F20F040000B90FFE70B9952
:105530001198026842E805100028F0D1FFE7FFE764
:105540001198806B98B1FFE71198816B46F6E9607E
:10555000C0F6000008651198806BFDF7CBFC28B100
:10556000FFE71198806B016D8847FFE703E0119812
:10557000FFF708FFFFE703E01198FFF703FFFFE7DE
:1055800006E01198FFF7FEFE119900200864FFE77E
:10559000FFE71CE11198006B012840F0F880FFE75D
:1055A0009DF84000C006002840F1F180FFE79DF81B
:1055B0003C00C006002840F1EA80FFE7FFE700203A
:1055C0000A901198006800680A9011980068406875
:1055D0000A900A98FFE71198006840694006002881
:1055E0007ED5FFE71198806B00684068ADF8260013
:1055F000BDF82600002872D0FFE7BDF826001199FB
:10560000898D88426BDAFFE7BDF826001199C885BD
:105610001198806BC069B0F5807F58D0FFE7FFE735
:10562000FFE71198006850E8030F20F4807008909D
:10563000FFE708991198026842E803100028F0D1AA
:10564000FFE7FFE7FFE7FFE71198006850E8050F65
:1056500020F001000790FFE707991198026842E8DF
:1056600005100028F0D1FFE7FFE7FFE7FFE71198FB
:10567000006850E8050F20F040000690FFE706990B
:105680001198026842E805100028F0D1FFE7FFE713
:105690001199202081F83E00119900200863FFE74E
:1056A000FFE71198006850E8030F20F01000059004
:1056B000FFE705991198026842E803100028F0D12D
:1056C000FFE7FFE71198806BFDF79EFBFFE711985E
:1056D000818DC28D891A89B2FFF74EFEFFE776E011
:1056E0001199888DC98D401AADF812001198C08D9E
:1056F00000284BD0FFE7BDF81200002846D0FFE796
:10570000FFE7FFE71198006850E8030F20F490705E
:105710000390FFE703991198026842E803100028FC
:10572000F0D1FFE7FFE7FFE7FFE71198006850E8D7
:10573000050F20F001000290FFE70299119802681E
:1057400042E805100028F0D1FFE7FFE7119920207B
:1057500081F83E00119900200863FFE7FFE71198E8
:10576000006850E8030F20F010000190FFE7019956
:105770001198026842E803100028F0D1FFE7FFE724
:105780001198BDF81210FFF7F7FDFFE71FE09DF835
:105790004000000600280AD5FFE79DF83C000006FF
:1057A000002804D5FFE7119801F094FD0FE09DF863
:1057B0004000400600280AD5FFE79DF83C0040065F
:1057C000002804D5FFE7119801F0E8FBFFE712B0CD
:1057D00080BD000080B582B00090009820B9FFE73E
:1057E00001208DF807003EE00098806908B1FFE7CE
:1057F00000E0FFE7009890F83D0040B9FFE700990E
:10580000002081F83C00009800F032F8FFE7009992
:10581000242081F83D0000980168C86820F40050F9
:10582000C860009801F080FC00980168086920F4C5
:105830009040086100980168486920F02A0048619A
:1058400000980168C86840F40050C86000990020C2
:105850000864009A202182F83D10009A82F83E10D8
:105860008DF80700FFE79DF8070002B080BD00003B
:1058700080B58EB00D9000200C900B900A9009908E
:1058800008900D98006841F20001C4F201018842BD
:105890003ED1FFE7FFE70020079043F64400C4F243
:1058A0000200016841F010010160006800F0100082
:1058B00007900798FFE7FFE70020069043F63000C7
:1058C000C4F20200016841F001010160006800F0CB
:1058D000010006900698FFE74FF4C0600890022090
:1058E0000990002002900A9003200B9007200C9052
:1058F0000020C4F2020008A9FDF7F4FD029A252059
:1059000003901146FEF77AF80398FEF76DF848E029
:105910000D98006844F60001C4F2000188423FD1AE
:10592000FFE7FFE70020059043F64000C4F20200C5
:10593000016841F480210160006800F48020059036
:105940000598FFE7FFE70020049043F63000C4F21B
:105950000200016841F002010160006800F00200ED
:1059600004900498FFE74FF44060089002200990EB
:10597000002000900A9003200B9007200C9040F22A
:105980000040C4F2020008A9FDF7ACFD009A2720F0
:1059900001901146FEF732F80198FEF725F8FFE76F
:1059A000FFE70EB080BD000080B584B00290019189
:1059B000ADF80220029890F83E00202828D1FFE799
:1059C000019820B1FFE7BDF8020020B9FFE70120F0
:1059D0008DF80F0020E0FFE7029890F83C000128C6
:1059E00004D1FFE702208DF80F0015E00299012095
:1059F00081F83C00FFE7FFE7029900200863029866
:105A00000199BDF8022001F02DFC8DF80F0003E094
:105A100002208DF80F00FFE79DF80F0004B080BD55
:105A200080B582B001900198006841F20001C4F293
:105A30000101884240F08480FFE740F2AC50C2F29E
:105A400000000078FF281CDBFFE740F2AC51C2F2F7
:105A500000010020087040F28E30C2F200004FF4C6
:105A60008071FAF738FD40F69C20C2F2000048F23F
:105A70006261C0F605010A224FF6FF7300F050F98B
:105A800052E040F24870C2F20000027840F2AC509E
:105A9000C2F200000378591C017040F28E31C2F24C
:105AA0000001CA540078084410F8010C0A283AD1C1
:105AB000FFE740F2AC50C2F20000007840F28E31B5
:105AC000C2F20001084410F8020C0D282BD1FFE7A8
:105AD00040F2AC50C2F20000027840F6E020C2F280
